{
    "_format": "hh-sol-artifact-1",
    "contractName": "Vault",
    "sourceName": "contracts/Vault.sol",
    "abi": [
        {
            "inputs": [
                {
                    "internalType": "contract IERC20",
                    "name": "_asset",
                    "type": "address"
                },
                {
                    "internalType": "uint256",
                    "name": "_basisPoints",
                    "type": "uint256"
                }
            ],
            "stateMutability": "nonpayable",
            "type": "constructor"
        },
        {
            "anonymous": false,
            "inputs": [
                {
                    "indexed": true,
                    "internalType": "address",
                    "name": "owner",
                    "type": "address"
                },
                {
                    "indexed": true,
                    "internalType": "address",
                    "name": "spender",
                    "type": "address"
                },
                {
                    "indexed": false,
                    "internalType": "uint256",
                    "name": "value",
                    "type": "uint256"
                }
            ],
            "name": "Approval",
            "type": "event"
        },
        {
            "anonymous": false,
            "inputs": [
                {
                    "indexed": true,
                    "internalType": "address",
                    "name": "sender",
                    "type": "address"
                },
                {
                    "indexed": true,
                    "internalType": "address",
                    "name": "owner",
                    "type": "address"
                },
                {
                    "indexed": false,
                    "internalType": "uint256",
                    "name": "assets",
                    "type": "uint256"
                },
                {
                    "indexed": false,
                    "internalType": "uint256",
                    "name": "shares",
                    "type": "uint256"
                }
            ],
            "name": "Deposit",
            "type": "event"
        },
        {
            "anonymous": false,
            "inputs": [
                {
                    "indexed": true,
                    "internalType": "address",
                    "name": "from",
                    "type": "address"
                },
                {
                    "indexed": true,
                    "internalType": "address",
                    "name": "to",
                    "type": "address"
                },
                {
                    "indexed": false,
                    "internalType": "uint256",
                    "name": "value",
                    "type": "uint256"
                }
            ],
            "name": "Transfer",
            "type": "event"
        },
        {
            "anonymous": false,
            "inputs": [
                {
                    "indexed": true,
                    "internalType": "address",
                    "name": "sender",
                    "type": "address"
                },
                {
                    "indexed": true,
                    "internalType": "address",
                    "name": "receiver",
                    "type": "address"
                },
                {
                    "indexed": true,
                    "internalType": "address",
                    "name": "owner",
                    "type": "address"
                },
                {
                    "indexed": false,
                    "internalType": "uint256",
                    "name": "assets",
                    "type": "uint256"
                },
                {
                    "indexed": false,
                    "internalType": "uint256",
                    "name": "shares",
                    "type": "uint256"
                }
            ],
            "name": "Withdraw",
            "type": "event"
        },
        {
            "inputs": [
                {
                    "internalType": "address",
                    "name": "",
                    "type": "address"
                }
            ],
            "name": "address_to_user",
            "outputs": [
                {
                    "internalType": "uint256",
                    "name": "credit_worthiness",
                    "type": "uint256"
                },
                {
                    "internalType": "uint256",
                    "name": "credit_available",
                    "type": "uint256"
                },
                {
                    "internalType": "bool",
                    "name": "world_id_verified",
                    "type": "bool"
                }
            ],
            "stateMutability": "view",
            "type": "function"
        },
        {
            "inputs": [
                {
                    "internalType": "address",
                    "name": "owner",
                    "type": "address"
                },
                {
                    "internalType": "address",
                    "name": "spender",
                    "type": "address"
                }
            ],
            "name": "allowance",
            "outputs": [
                {
                    "internalType": "uint256",
                    "name": "",
                    "type": "uint256"
                }
            ],
            "stateMutability": "view",
            "type": "function"
        },
        {
            "inputs": [
                {
                    "internalType": "address",
                    "name": "spender",
                    "type": "address"
                },
                {
                    "internalType": "uint256",
                    "name": "amount",
                    "type": "uint256"
                }
            ],
            "name": "approve",
            "outputs": [
                {
                    "internalType": "bool",
                    "name": "",
                    "type": "bool"
                }
            ],
            "stateMutability": "nonpayable",
            "type": "function"
        },
        {
            "inputs": [],
            "name": "asset",
            "outputs": [
                {
                    "internalType": "address",
                    "name": "",
                    "type": "address"
                }
            ],
            "stateMutability": "view",
            "type": "function"
        },
        {
            "inputs": [
                {
                    "internalType": "address",
                    "name": "account",
                    "type": "address"
                }
            ],
            "name": "balanceOf",
            "outputs": [
                {
                    "internalType": "uint256",
                    "name": "",
                    "type": "uint256"
                }
            ],
            "stateMutability": "view",
            "type": "function"
        },
        {
            "inputs": [
                {
                    "internalType": "address",
                    "name": "depositer",
                    "type": "address"
                }
            ],
            "name": "calculate_interest",
            "outputs": [
                {
                    "internalType": "uint256",
                    "name": "",
                    "type": "uint256"
                }
            ],
            "stateMutability": "view",
            "type": "function"
        },
        {
            "inputs": [
                {
                    "internalType": "uint256",
                    "name": "shares",
                    "type": "uint256"
                }
            ],
            "name": "convertToAssets",
            "outputs": [
                {
                    "internalType": "uint256",
                    "name": "",
                    "type": "uint256"
                }
            ],
            "stateMutability": "view",
            "type": "function"
        },
        {
            "inputs": [
                {
                    "internalType": "uint256",
                    "name": "assets",
                    "type": "uint256"
                }
            ],
            "name": "convertToShares",
            "outputs": [
                {
                    "internalType": "uint256",
                    "name": "",
                    "type": "uint256"
                }
            ],
            "stateMutability": "view",
            "type": "function"
        },
        {
            "inputs": [
                {
                    "internalType": "address",
                    "name": "user_addr",
                    "type": "address"
                },
                {
                    "internalType": "uint256",
                    "name": "initial_credit_worthiness",
                    "type": "uint256"
                },
                {
                    "internalType": "uint256",
                    "name": "initial_credit_available",
                    "type": "uint256"
                },
                {
                    "internalType": "bool",
                    "name": "world_id_verified_q",
                    "type": "bool"
                }
            ],
            "name": "create_user",
            "outputs": [],
            "stateMutability": "nonpayable",
            "type": "function"
        },
        {
            "inputs": [],
            "name": "decimals",
            "outputs": [
                {
                    "internalType": "uint8",
                    "name": "",
                    "type": "uint8"
                }
            ],
            "stateMutability": "view",
            "type": "function"
        },
        {
            "inputs": [
                {
                    "internalType": "address",
                    "name": "spender",
                    "type": "address"
                },
                {
                    "internalType": "uint256",
                    "name": "subtractedValue",
                    "type": "uint256"
                }
            ],
            "name": "decreaseAllowance",
            "outputs": [
                {
                    "internalType": "bool",
                    "name": "",
                    "type": "bool"
                }
            ],
            "stateMutability": "nonpayable",
            "type": "function"
        },
        {
            "inputs": [
                {
                    "internalType": "uint256",
                    "name": "assets",
                    "type": "uint256"
                },
                {
                    "internalType": "address",
                    "name": "receiver",
                    "type": "address"
                }
            ],
            "name": "deposit",
            "outputs": [
                {
                    "internalType": "uint256",
                    "name": "",
                    "type": "uint256"
                }
            ],
            "stateMutability": "nonpayable",
            "type": "function"
        },
        {
            "inputs": [
                {
                    "internalType": "uint256",
                    "name": "loanAmount",
                    "type": "uint256"
                },
                {
                    "internalType": "uint8",
                    "name": "number_of_splits",
                    "type": "uint8"
                }
            ],
            "name": "dispatchLoan",
            "outputs": [],
            "stateMutability": "nonpayable",
            "type": "function"
        },
        {
            "inputs": [],
            "name": "entryFeeBasisPoints",
            "outputs": [
                {
                    "internalType": "uint256",
                    "name": "",
                    "type": "uint256"
                }
            ],
            "stateMutability": "view",
            "type": "function"
        },
        {
            "inputs": [
                {
                    "internalType": "address",
                    "name": "user",
                    "type": "address"
                }
            ],
            "name": "get_credit_limit",
            "outputs": [
                {
                    "internalType": "uint256",
                    "name": "",
                    "type": "uint256"
                }
            ],
            "stateMutability": "view",
            "type": "function"
        },
        {
            "inputs": [
                {
                    "internalType": "address",
                    "name": "user",
                    "type": "address"
                }
            ],
            "name": "get_credit_worthiness",
            "outputs": [
                {
                    "internalType": "uint256",
                    "name": "",
                    "type": "uint256"
                }
            ],
            "stateMutability": "view",
            "type": "function"
        },
        {
            "inputs": [
                {
                    "internalType": "address",
                    "name": "user",
                    "type": "address"
                },
                {
                    "internalType": "uint8",
                    "name": "id",
                    "type": "uint8"
                }
            ],
            "name": "get_loan_by_id",
            "outputs": [
                {
                    "components": [
                        {
                            "internalType": "uint256",
                            "name": "amount",
                            "type": "uint256"
                        },
                        {
                            "internalType": "uint8",
                            "name": "remaining_tenures",
                            "type": "uint8"
                        },
                        {
                            "internalType": "uint8",
                            "name": "total_tenures",
                            "type": "uint8"
                        },
                        {
                            "internalType": "uint256",
                            "name": "tenure_size",
                            "type": "uint256"
                        },
                        {
                            "internalType": "uint256",
                            "name": "loan_taken_time",
                            "type": "uint256"
                        },
                        {
                            "internalType": "uint256",
                            "name": "next_tenure_due",
                            "type": "uint256"
                        },
                        {
                            "internalType": "uint256",
                            "name": "last_day_of_repayment",
                            "type": "uint256"
                        },
                        {
                            "internalType": "uint256",
                            "name": "vUDSC_released_every_tenure",
                            "type": "uint256"
                        }
                    ],
                    "internalType": "struct Vault.loanDetails",
                    "name": "",
                    "type": "tuple"
                }
            ],
            "stateMutability": "view",
            "type": "function"
        },
        {
            "inputs": [
                {
                    "internalType": "address",
                    "name": "repayer",
                    "type": "address"
                },
                {
                    "internalType": "uint8",
                    "name": "loanId",
                    "type": "uint8"
                }
            ],
            "name": "get_repayment_amount",
            "outputs": [
                {
                    "internalType": "uint256",
                    "name": "",
                    "type": "uint256"
                }
            ],
            "stateMutability": "view",
            "type": "function"
        },
        {
            "inputs": [
                {
                    "internalType": "address",
                    "name": "spender",
                    "type": "address"
                },
                {
                    "internalType": "uint256",
                    "name": "addedValue",
                    "type": "uint256"
                }
            ],
            "name": "increaseAllowance",
            "outputs": [
                {
                    "internalType": "bool",
                    "name": "",
                    "type": "bool"
                }
            ],
            "stateMutability": "nonpayable",
            "type": "function"
        },
        {
            "inputs": [
                {
                    "internalType": "address",
                    "name": "user",
                    "type": "address"
                }
            ],
            "name": "is_world_id_verified",
            "outputs": [
                {
                    "internalType": "bool",
                    "name": "",
                    "type": "bool"
                }
            ],
            "stateMutability": "view",
            "type": "function"
        },
        {
            "inputs": [
                {
                    "internalType": "address",
                    "name": "",
                    "type": "address"
                }
            ],
            "name": "maxDeposit",
            "outputs": [
                {
                    "internalType": "uint256",
                    "name": "",
                    "type": "uint256"
                }
            ],
            "stateMutability": "view",
            "type": "function"
        },
        {
            "inputs": [
                {
                    "internalType": "address",
                    "name": "",
                    "type": "address"
                }
            ],
            "name": "maxMint",
            "outputs": [
                {
                    "internalType": "uint256",
                    "name": "",
                    "type": "uint256"
                }
            ],
            "stateMutability": "view",
            "type": "function"
        },
        {
            "inputs": [
                {
                    "internalType": "address",
                    "name": "owner",
                    "type": "address"
                }
            ],
            "name": "maxRedeem",
            "outputs": [
                {
                    "internalType": "uint256",
                    "name": "",
                    "type": "uint256"
                }
            ],
            "stateMutability": "view",
            "type": "function"
        },
        {
            "inputs": [
                {
                    "internalType": "address",
                    "name": "owner",
                    "type": "address"
                }
            ],
            "name": "maxWithdraw",
            "outputs": [
                {
                    "internalType": "uint256",
                    "name": "",
                    "type": "uint256"
                }
            ],
            "stateMutability": "view",
            "type": "function"
        },
        {
            "inputs": [
                {
                    "internalType": "uint256",
                    "name": "shares",
                    "type": "uint256"
                },
                {
                    "internalType": "address",
                    "name": "receiver",
                    "type": "address"
                }
            ],
            "name": "mint",
            "outputs": [
                {
                    "internalType": "uint256",
                    "name": "",
                    "type": "uint256"
                }
            ],
            "stateMutability": "nonpayable",
            "type": "function"
        },
        {
            "inputs": [],
            "name": "name",
            "outputs": [
                {
                    "internalType": "string",
                    "name": "",
                    "type": "string"
                }
            ],
            "stateMutability": "view",
            "type": "function"
        },
        {
            "inputs": [
                {
                    "internalType": "uint256",
                    "name": "assets",
                    "type": "uint256"
                }
            ],
            "name": "previewDeposit",
            "outputs": [
                {
                    "internalType": "uint256",
                    "name": "",
                    "type": "uint256"
                }
            ],
            "stateMutability": "view",
            "type": "function"
        },
        {
            "inputs": [
                {
                    "internalType": "uint256",
                    "name": "shares",
                    "type": "uint256"
                }
            ],
            "name": "previewMint",
            "outputs": [
                {
                    "internalType": "uint256",
                    "name": "",
                    "type": "uint256"
                }
            ],
            "stateMutability": "view",
            "type": "function"
        },
        {
            "inputs": [
                {
                    "internalType": "uint256",
                    "name": "shares",
                    "type": "uint256"
                }
            ],
            "name": "previewRedeem",
            "outputs": [
                {
                    "internalType": "uint256",
                    "name": "",
                    "type": "uint256"
                }
            ],
            "stateMutability": "view",
            "type": "function"
        },
        {
            "inputs": [
                {
                    "internalType": "uint256",
                    "name": "assets",
                    "type": "uint256"
                }
            ],
            "name": "previewWithdraw",
            "outputs": [
                {
                    "internalType": "uint256",
                    "name": "",
                    "type": "uint256"
                }
            ],
            "stateMutability": "view",
            "type": "function"
        },
        {
            "inputs": [
                {
                    "internalType": "uint256",
                    "name": "shares",
                    "type": "uint256"
                },
                {
                    "internalType": "address",
                    "name": "receiver",
                    "type": "address"
                },
                {
                    "internalType": "address",
                    "name": "owner",
                    "type": "address"
                }
            ],
            "name": "redeem",
            "outputs": [
                {
                    "internalType": "uint256",
                    "name": "",
                    "type": "uint256"
                }
            ],
            "stateMutability": "nonpayable",
            "type": "function"
        },
        {
            "inputs": [
                {
                    "internalType": "uint8",
                    "name": "id",
                    "type": "uint8"
                }
            ],
            "name": "repay_tenure",
            "outputs": [],
            "stateMutability": "nonpayable",
            "type": "function"
        },
        {
            "inputs": [],
            "name": "symbol",
            "outputs": [
                {
                    "internalType": "string",
                    "name": "",
                    "type": "string"
                }
            ],
            "stateMutability": "view",
            "type": "function"
        },
        {
            "inputs": [],
            "name": "totalAssets",
            "outputs": [
                {
                    "internalType": "uint256",
                    "name": "",
                    "type": "uint256"
                }
            ],
            "stateMutability": "view",
            "type": "function"
        },
        {
            "inputs": [],
            "name": "totalSupply",
            "outputs": [
                {
                    "internalType": "uint256",
                    "name": "",
                    "type": "uint256"
                }
            ],
            "stateMutability": "view",
            "type": "function"
        },
        {
            "inputs": [
                {
                    "internalType": "address",
                    "name": "to",
                    "type": "address"
                },
                {
                    "internalType": "uint256",
                    "name": "amount",
                    "type": "uint256"
                }
            ],
            "name": "transfer",
            "outputs": [
                {
                    "internalType": "bool",
                    "name": "",
                    "type": "bool"
                }
            ],
            "stateMutability": "nonpayable",
            "type": "function"
        },
        {
            "inputs": [
                {
                    "internalType": "address",
                    "name": "from",
                    "type": "address"
                },
                {
                    "internalType": "address",
                    "name": "to",
                    "type": "address"
                },
                {
                    "internalType": "uint256",
                    "name": "amount",
                    "type": "uint256"
                }
            ],
            "name": "transferFrom",
            "outputs": [
                {
                    "internalType": "bool",
                    "name": "",
                    "type": "bool"
                }
            ],
            "stateMutability": "nonpayable",
            "type": "function"
        },
        {
            "inputs": [
                {
                    "internalType": "address",
                    "name": "user",
                    "type": "address"
                },
                {
                    "internalType": "uint256",
                    "name": "newCredit",
                    "type": "uint256"
                }
            ],
            "name": "update_credit_worthiness",
            "outputs": [],
            "stateMutability": "nonpayable",
            "type": "function"
        },
        {
            "inputs": [
                {
                    "internalType": "address",
                    "name": "",
                    "type": "address"
                },
                {
                    "internalType": "uint256",
                    "name": "",
                    "type": "uint256"
                }
            ],
            "name": "user_to_loan_mapping",
            "outputs": [
                {
                    "internalType": "uint256",
                    "name": "amount",
                    "type": "uint256"
                },
                {
                    "internalType": "uint8",
                    "name": "remaining_tenures",
                    "type": "uint8"
                },
                {
                    "internalType": "uint8",
                    "name": "total_tenures",
                    "type": "uint8"
                },
                {
                    "internalType": "uint256",
                    "name": "tenure_size",
                    "type": "uint256"
                },
                {
                    "internalType": "uint256",
                    "name": "loan_taken_time",
                    "type": "uint256"
                },
                {
                    "internalType": "uint256",
                    "name": "next_tenure_due",
                    "type": "uint256"
                },
                {
                    "internalType": "uint256",
                    "name": "last_day_of_repayment",
                    "type": "uint256"
                },
                {
                    "internalType": "uint256",
                    "name": "vUDSC_released_every_tenure",
                    "type": "uint256"
                }
            ],
            "stateMutability": "view",
            "type": "function"
        },
        {
            "inputs": [],
            "name": "vaultOwner",
            "outputs": [
                {
                    "internalType": "address payable",
                    "name": "",
                    "type": "address"
                }
            ],
            "stateMutability": "view",
            "type": "function"
        },
        {
            "inputs": [
                {
                    "internalType": "uint256",
                    "name": "assets",
                    "type": "uint256"
                },
                {
                    "internalType": "address",
                    "name": "receiver",
                    "type": "address"
                },
                {
                    "internalType": "address",
                    "name": "owner",
                    "type": "address"
                }
            ],
            "name": "withdraw",
            "outputs": [
                {
                    "internalType": "uint256",
                    "name": "",
                    "type": "uint256"
                }
            ],
            "stateMutability": "nonpayable",
            "type": "function"
        }
    ],
    "bytecode": "0x60e06040523480156200001157600080fd5b5060405162003aa438038062003aa48339810160408190526200003491620001e4565b816040518060400160405280601081526020016f2b30bab63a102aa9a221902a37b5b2b760811b81525060405180604001604052806005815260200164765553444360d81b81525081600390816200008d9190620002c5565b5060046200009c8282620002c5565b505050600080620000b383620000ff60201b60201c565b9150915081620000c5576012620000c7565b805b60ff1660a05250506001600160a01b03908116608052600580546001600160a01b031916331790556006919091551660c052620003dc565b60408051600481526024810182526020810180516001600160e01b031663313ce56760e01b17905290516000918291829182916001600160a01b03871691620001489162000391565b600060405180830381855afa9150503d806000811462000185576040519150601f19603f3d011682016040523d82523d6000602084013e6200018a565b606091505b50915091508180156200019f57506020815110155b15620001d757600081806020019051810190620001bd9190620003c2565b905060ff8111620001d5576001969095509350505050565b505b5060009485945092505050565b60008060408385031215620001f857600080fd5b82516001600160a01b03811681146200021057600080fd5b6020939093015192949293505050565b634e487b7160e01b600052604160045260246000fd5b600181811c908216806200024b57607f821691505b6020821081036200026c57634e487b7160e01b600052602260045260246000fd5b50919050565b601f821115620002c057600081815260208120601f850160051c810160208610156200029b5750805b601f850160051c820191505b81811015620002bc57828155600101620002a7565b5050505b505050565b81516001600160401b03811115620002e157620002e162000220565b620002f981620002f2845462000236565b8462000272565b602080601f831160018114620003315760008415620003185750858301515b600019600386901b1c1916600185901b178555620002bc565b600085815260208120601f198616915b82811015620003625788860151825594840194600190910190840162000341565b5085821015620003815787850151600019600388901b60f8161c191681555b5050505050600190811b01905550565b6000825160005b81811015620003b4576020818601810151858301520162000398565b506000920191825250919050565b600060208284031215620003d557600080fd5b5051919050565b60805160a05160c051613652620004526000396000818161140f01528181611535015281816118780152818161195801528181611a6a01526124900152600061097b015260008181610436015281816107830152818161203501528181612158015281816127c901526129ea01526136526000f3fe608060405234801561001057600080fd5b50600436106102d35760003560e01c80636e553f6511610186578063ba087652116100e3578063ce96cb7711610097578063dd62ed3e11610071578063dd62ed3e146106d0578063df4f1bdc14610709578063ef8b30f71461075857600080fd5b8063ce96cb7714610697578063d3771a72146106aa578063d905777e146106bd57600080fd5b8063ba9b2073116100c8578063ba9b207314610671578063c63d75b61461046d578063c6e6f5921461068457600080fd5b8063ba08765214610655578063ba0af7a91461066857600080fd5b806395d89b411161013a578063a9059cbb1161011f578063a9059cbb1461061c578063b3d7f6b91461062f578063b460af941461064257600080fd5b806395d89b4114610601578063a457c2d71461060957600080fd5b8063811845ed1161016b578063811845ed146105af578063844e27e7146105c257806394bf804d146105ee57600080fd5b80636e553f651461057357806370a082311461058657600080fd5b8063324d7b76116102345780635bc0bded116101e857806364fcacba116101cd57806364fcacba146104bb578063654f72c8146104e4578063657e7f141461055e57600080fd5b80635bc0bded146104955780635dbac265146104a857600080fd5b80633950935111610219578063395093511461045a578063402d267d1461046d5780634cdad5061461048257600080fd5b8063324d7b761461040557806338d52e0f1461043457600080fd5b806318160ddd1161028b57806323b872dd1161027057806323b872dd1461038457806329ac759c14610397578063313ce567146103eb57600080fd5b806318160ddd146103515780631f52692b1461035957600080fd5b806307a2d13a116102bc57806307a2d13a14610308578063095ea7b31461031b5780630a28a4771461033e57600080fd5b806301e1d114146102d857806306fdde03146102f3575b600080fd5b6102e061076b565b6040519081526020015b60405180910390f35b6102fb6107fb565b6040516102ea9190613151565b6102e0610316366004613184565b61088d565b61032e6103293660046131b9565b6108a0565b60405190151581526020016102ea565b6102e061034c366004613184565b6108b8565b6002546102e0565b60055461036c906001600160a01b031681565b6040516001600160a01b0390911681526020016102ea565b61032e6103923660046131e3565b6108e5565b6103aa6103a53660046131b9565b610909565b6040805198895260ff97881660208a015295909616948701949094526060860192909252608085015260a084015260c083015260e0820152610100016102ea565b6103f3610973565b60405160ff90911681526020016102ea565b61032e61041336600461321f565b6001600160a01b03166000908152600a602052604090206002015460ff1690565b7f000000000000000000000000000000000000000000000000000000000000000061036c565b61032e6104683660046131b9565b61099f565b6102e061047b36600461321f565b5060001990565b6102e0610490366004613184565b6109de565b6102e06104a336600461321f565b610a06565b6102e06104b636600461324b565b610aca565b6102e06104c936600461321f565b6001600160a01b03166000908152600a602052604090205490565b6104f76104f236600461324b565b610b11565b6040516102ea91906000610100820190508251825260ff602084015116602083015260ff6040840151166040830152606083015160608301526080830151608083015260a083015160a083015260c083015160c083015260e083015160e083015292915050565b61057161056c3660046131b9565b610c07565b005b6102e061058136600461327e565b610d46565b6102e061059436600461321f565b6001600160a01b031660009081526020819052604090205490565b6105716105bd3660046132b2565b610dd8565b6102e06105d036600461321f565b6001600160a01b03166000908152600a602052604090206001015490565b6102e06105fc36600461327e565b610ea9565b6102fb610f3b565b61032e6106173660046131b9565b610f4a565b61032e61062a3660046131b9565b610ff4565b6102e061063d366004613184565b611002565b6102e06106503660046132fa565b611027565b6102e06106633660046132fa565b611132565b6102e060065481565b61057161067f366004613336565b611234565b6102e0610692366004613184565b6116e0565b6102e06106a536600461321f565b6116ed565b6105716106b8366004613359565b611711565b6102e06106cb36600461321f565b611b57565b6102e06106de366004613374565b6001600160a01b03918216600090815260016020908152604080832093909416825291909152205490565b61073b61071736600461321f565b600a6020526000908152604090208054600182015460029092015490919060ff1683565b6040805193845260208401929092521515908201526060016102ea565b6102e0610766366004613184565b611b75565b6040516370a0823160e01b81523060048201526000907f00000000000000000000000000000000000000000000000000000000000000006001600160a01b0316906370a0823190602401602060405180830381865afa1580156107d2573d6000803e3d6000fd5b505050506040513d601f19601f820116820180604052508101906107f6919061339e565b905090565b60606003805461080a906133b7565b80601f0160208091040260200160405190810160405280929190818152602001828054610836906133b7565b80156108835780601f1061085857610100808354040283529160200191610883565b820191906000526020600020905b81548152906001019060200180831161086657829003601f168201915b5050505050905090565b600061089a826000611b94565b92915050565b6000336108ae818585611bce565b5060019392505050565b6000806108ca8382611d26565b611d26565b90506108de6108d98285613407565b611d37565b9392505050565b6000336108f3858285611d44565b6108fe858585611dd6565b506001949350505050565b600b602052816000526040600020818154811061092557600080fd5b6000918252602090912060079091020180546001820154600283015460038401546004850154600586015460069096015494975060ff80851697506101009094049093169491939092919088565b60006107f6817f000000000000000000000000000000000000000000000000000000000000000061341a565b3360008181526001602090815260408083206001600160a01b03871684529091528120549091906108ae90829086906109d9908790613407565b611bce565b6000806109ea8361088d565b90506109fc816000611fc3565b611fc3565b6108de9082613433565b6001600160a01b038116600090815260076020526040812054819062278d0090610a309042613433565b610a3a919061345c565b905060008111610a915760405162461bcd60e51b815260206004820152601d60248201527f5769746864726177206f6e6c79206166746572206f6e65206d6f6e746800000060448201526064015b60405180910390fd5b6001600160a01b038316600090815260086020526040812054606490610ab890849061347e565b610ac2919061345c565b949350505050565b6001600160a01b0382166000908152600b60205260408120805460ff8416908110610af757610af7613495565b906000526020600020906007020160020154905092915050565b610b5f60405180610100016040528060008152602001600060ff168152602001600060ff16815260200160008152602001600081526020016000815260200160008152602001600081525090565b6001600160a01b0383166000908152600b60205260409020805460ff8416908110610b8c57610b8c613495565b6000918252602091829020604080516101008082018352600790940290920180548352600181015460ff8082169685019690965293909304909316928101929092526002810154606083015260038101546080830152600481015460a0830152600581015460c08301526006015460e0820152905092915050565b6005546001600160a01b03163314610c615760405162461bcd60e51b815260206004820152601560248201527f4f6e6c79206f776e65722063616e2075706461746500000000000000000000006044820152606401610a88565b6001600160a01b0382166000908152600a6020526040902080549082905581108015610ce7576001600160a01b0383166000908152600a6020526040812054610cab908490613433565b6001600160a01b0385166000908152600a6020526040812060010180549293508392909190610cdb908490613433565b90915550610d41915050565b6001600160a01b0383166000908152600a6020526040812054610d0a9084613433565b6001600160a01b0385166000908152600a6020526040812060010180549293508392909190610d3a908490613407565b9091555050505b505050565b3360009081526007602052604081205415610db55760405162461bcd60e51b815260206004820152602960248201527f57697468647261772070726576696f7573207374616b65206265666f726520696044820152686e6372656173696e6760b81b6064820152608401610a88565b6000610dc084611b75565b9050610dce33848684611fdf565b6108de843361205c565b336000908152600a6020526040902054158015610e055750336000908152600a6020526040902060010154155b610e515760405162461bcd60e51b815260206004820152601360248201527f5573657220616c726561647920657869737473000000000000000000000000006044820152606401610a88565b6040805160608101825293845260208085019384529115158482019081526001600160a01b03959095166000908152600a90925290209151825551600182015590516002909101805460ff1916911515919091179055565b3360009081526007602052604081205415610f185760405162461bcd60e51b815260206004820152602960248201527f57697468647261772070726576696f7573207374616b65206265666f726520696044820152686e6372656173696e6760b81b6064820152608401610a88565b6000610f2384611002565b9050610f3133848387611fdf565b6108de813361205c565b60606004805461080a906133b7565b3360008181526001602090815260408083206001600160a01b038716845290915281205490919083811015610fe75760405162461bcd60e51b815260206004820152602560248201527f45524332303a2064656372656173656420616c6c6f77616e63652062656c6f7760448201527f207a65726f0000000000000000000000000000000000000000000000000000006064820152608401610a88565b6108fe8286868403611bce565b6000336108ae818585611dd6565b60008061100e836120c9565b905061101d816108c560065490565b6108de9082613407565b6000611032826116ed565b8411156110815760405162461bcd60e51b815260206004820152601f60248201527f455243343632363a207769746864726177206d6f7265207468616e206d6178006044820152606401610a88565b33600090815260076020526040902054158015906110ad57503360009081526008602052604090205415155b6110f95760405162461bcd60e51b815260206004820152601660248201527f496e76657374206265666f7265207769746864726177000000000000000000006044820152606401610a88565b6000611104856108b8565b90506000611111336120d6565b9050611129338686611123858b613407565b86612118565b50949350505050565b600061113d82611b57565b84111561118c5760405162461bcd60e51b815260206004820152601d60248201527f455243343632363a2072656465656d206d6f7265207468616e206d61780000006044820152606401610a88565b33600090815260076020526040902054158015906111b857503360009081526008602052604090205415155b6112045760405162461bcd60e51b815260206004820152601660248201527f496e76657374206265666f7265207769746864726177000000000000000000006044820152606401610a88565b600061120f856109de565b9050600061121c336120d6565b905061112933868661122e8587613407565b8a612118565b336000908152600a60209081526040918290208251606081018452815480825260018301549382019390935260029091015460ff161515928101929092528391906112c15760405162461bcd60e51b815260206004820152601460248201527f596f7520617265206e6f7420656c696769626c650000000000000000000000006044820152606401610a88565b818160200151101561133b5760405162461bcd60e51b815260206004820152602260248201527f436c656172206465627473206265666f72652074616b696e67206e6577206c6f60448201527f616e0000000000000000000000000000000000000000000000000000000000006064820152608401610a88565b6113453383612185565b604051636eb1769f60e11b815233600482015230602482018190529063dd62ed3e90604401602060405180830381865afa158015611387573d6000803e3d6000fd5b505050506040513d601f19601f820116820180604052508101906113ab919061339e565b116113f85760405162461bcd60e51b815260206004820152601360248201527f4e6f7420656e6f75676820617070726f76616c000000000000000000000000006044820152606401610a88565b6040516370a0823160e01b815230600482015284907f00000000000000000000000000000000000000000000000000000000000000006001600160a01b0316906370a0823190602401602060405180830381865afa15801561145e573d6000803e3d6000fd5b505050506040513d601f19601f82011682018060405250810190611482919061339e565b10156114f65760405162461bcd60e51b815260206004820152602c60248201527f596f7572206c6f616e2063616e7420626520736572766564206e6f772074727960448201527f20616761696e206c6174657200000000000000000000000000000000000000006064820152608401610a88565b61150133858561224a565b61150a84612406565b61151384612474565b6040516323b872dd60e01b8152306004820152336024820152604481018590527f00000000000000000000000000000000000000000000000000000000000000006001600160a01b0316906323b872dd906064016020604051808303816000875af1158015611586573d6000803e3d6000fd5b505050506040513d601f19601f820116820180604052508101906115aa91906134ab565b6115f65760405162461bcd60e51b815260206004820181905260248201527f55534443207472616e7366657220746f20626f72726f776572206661696c65646044820152606401610a88565b60006116023386612185565b6040516323b872dd60e01b81523360048201523060248201819052604482018390529192506323b872dd906064016020604051808303816000875af115801561164f573d6000803e3d6000fd5b505050506040513d601f19601f8201168201806040525081019061167391906134ab565b6116bf5760405162461bcd60e51b815260206004820181905260248201527f765553444320636f6c6c61746572616c207472616e73666572206661696c65646044820152606401610a88565b5050336000908152600960205260409020805460ff19166001179055505050565b600061089a8260006124c7565b6001600160a01b03811660009081526020819052604081205461089a906000611b94565b336000908152600b6020526040812080548392919060ff841690811061173957611739613495565b600091825260209182902060408051610100808201835260079094029092018054808452600182015460ff8082169786019790975294909404909416908201526002830154606082015260038301546080820152600483015460a0820152600583015460c082015260069092015460e0830152909150158015906117c0575060c081015115155b80156117cf5750608081015115155b80156117de575060a081015115155b80156117f05750602081015160ff1615155b80156117ff5750606081015115155b80156118115750604081015160ff1615155b61185d5760405162461bcd60e51b815260206004820152601860248201527f54686973206973206e6f7420612076616c6964206c6f616e00000000000000006044820152606401610a88565b604051636eb1769f60e11b81523360048201523060248201527f00000000000000000000000000000000000000000000000000000000000000006001600160a01b03169063dd62ed3e90604401602060405180830381865afa1580156118c7573d6000803e3d6000fd5b505050506040513d601f19601f820116820180604052508101906118eb919061339e565b8160600151111561193e5760405162461bcd60e51b815260206004820152601c60248201527f596f752068617665206e6f2070726f70657220616c6c6f77616e6365000000006044820152606401610a88565b60608101516040516370a0823160e01b81523360048201527f00000000000000000000000000000000000000000000000000000000000000006001600160a01b0316906370a0823190602401602060405180830381865afa1580156119a7573d6000803e3d6000fd5b505050506040513d601f19601f820116820180604052508101906119cb919061339e565b1015611a195760405162461bcd60e51b815260206004820152601c60248201527f596f7520646f6e74206861766520656e6f7567682062616c616e6365000000006044820152606401610a88565b611a2333846124f7565b6000611a2f3385610aca565b90506000611a3d3386612722565b9050611a4881612406565b6040516323b872dd60e01b8152336004820152306024820152604481018390527f00000000000000000000000000000000000000000000000000000000000000006001600160a01b0316906323b872dd906064016020604051808303816000875af1158015611abb573d6000803e3d6000fd5b505050506040513d601f19601f82011682018060405250810190611adf91906134ab565b506040516323b872dd60e01b8152306004820181905233602483015260448201839052906323b872dd906064016020604051808303816000875af1158015611b2b573d6000803e3d6000fd5b505050506040513d601f19601f82011682018060405250810190611b4f91906134ab565b505050505050565b6001600160a01b03811660009081526020819052604081205461089a565b600080611b85836109f760065490565b90506108de6106928285613433565b60006108de611ba161076b565b611bac906001613407565b611bb86000600a6135ac565b600254611bc59190613407565b85919085612769565b6001600160a01b038316611c495760405162461bcd60e51b8152602060048201526024808201527f45524332303a20617070726f76652066726f6d20746865207a65726f2061646460448201527f72657373000000000000000000000000000000000000000000000000000000006064820152608401610a88565b6001600160a01b038216611cc55760405162461bcd60e51b815260206004820152602260248201527f45524332303a20617070726f766520746f20746865207a65726f20616464726560448201527f73730000000000000000000000000000000000000000000000000000000000006064820152608401610a88565b6001600160a01b0383811660008181526001602090815260408083209487168084529482529182902085905590518481527f8c5be1e5ebec7d5bd14f71427d1e84f3dd0314c0f7b2291e5b200ac8c7c3b925910160405180910390a3505050565b60006108de83836127106001612769565b600061089a8260016124c7565b6001600160a01b038381166000908152600160209081526040808320938616835292905220546000198114611dd05781811015611dc35760405162461bcd60e51b815260206004820152601d60248201527f45524332303a20696e73756666696369656e7420616c6c6f77616e63650000006044820152606401610a88565b611dd08484848403611bce565b50505050565b6001600160a01b038316611e525760405162461bcd60e51b815260206004820152602560248201527f45524332303a207472616e736665722066726f6d20746865207a65726f20616460448201527f64726573730000000000000000000000000000000000000000000000000000006064820152608401610a88565b6001600160a01b038216611ece5760405162461bcd60e51b815260206004820152602360248201527f45524332303a207472616e7366657220746f20746865207a65726f206164647260448201527f65737300000000000000000000000000000000000000000000000000000000006064820152608401610a88565b6001600160a01b03831660009081526020819052604090205481811015611f5d5760405162461bcd60e51b815260206004820152602660248201527f45524332303a207472616e7366657220616d6f756e742065786365656473206260448201527f616c616e636500000000000000000000000000000000000000000000000000006064820152608401610a88565b6001600160a01b03848116600081815260208181526040808320878703905593871680835291849020805487019055925185815290927fddf252ad1be2c89b69c2b068fc378daa952ba7f163c4a11628f55a4df523b3ef910160405180910390a3611dd0565b60006108de82611fd561271082613407565b8591906001612769565b6000611fee836109f760065490565b905060006120046005546001600160a01b031690565b9050612012868686866127c4565b60008211801561202b57506001600160a01b0381163014155b15611b4f57611b4f7f00000000000000000000000000000000000000000000000000000000000000005b8284612856565b6001600160a01b038116600090815260076020908152604080832042905560088252808320859055600a90915290206002015460ff1680156120b857610d418260026120a986600361347e565b6120b3919061345c565b6128ff565b610d418260056120a986600461347e565b600061089a826001611b94565b6000806120e283610a06565b6001600160a01b03841660009081526007602090815260408083208390556008909152812081905590915061089a9084906128ff565b60006121248382611d26565b9050600061213587878787876129b7565b60008211801561214e57506001600160a01b0381163014155b1561217c5761217c7f0000000000000000000000000000000000000000000000000000000000000000612055565b50505050505050565b6001600160a01b0382166000818152600a602090815260408083208151606081018352815481526001820154938101939093526002015460ff16151582820152516370a0823160e01b815260048101939093529091829030906370a0823190602401602060405180830381865afa158015612204573d6000803e3d6000fd5b505050506040513d601f19601f82011682018060405250810190612228919061339e565b8251909150612237828661347e565b612241919061345c565b95945050505050565b6001600160a01b0383166000908152600a602052604081209061226e60058561345c565b6122789085613407565b905080826001015461228a9190613433565b6001830155600061229e60ff85168361345c565b90504260006122b08262278d00613407565b905060006122c460ff881662278d0061347e565b6122ce9084613407565b905060008760ff166122e08b8b612185565b6122ea919061345c565b9050600b60008b6001600160a01b03166001600160a01b031681526020019081526020016000206040518061010001604052808881526020018a60ff1681526020018a60ff1681526020018781526020018681526020018581526020018481526020018381525090806001815401808255809150506001900390600052602060002090600702016000909190919091506000820151816000015560208201518160010160006101000a81548160ff021916908360ff16021790555060408201518160010160016101000a81548160ff021916908360ff160217905550606082015181600201556080820151816003015560a0820151816004015560c0820151816005015560e08201518160060155505050505050505050505050565b60405163095ea7b360e01b81523060048201819052602482018390529063095ea7b3906044015b6020604051808303816000875af115801561244c573d6000803e3d6000fd5b505050506040513d601f19601f8201168201806040525081019061247091906134ab565b5050565b60405163095ea7b360e01b8152306004820152602481018290527f00000000000000000000000000000000000000000000000000000000000000006001600160a01b03169063095ea7b39060440161242d565b60006108de6124d782600a6135ac565b6002546124e49190613407565b6124ec61076b565b611bc5906001613407565b6001600160a01b0382166000908152600b60205260408120805460ff841690811061252457612524613495565b600091825260209182902060408051610100808201835260079094029092018054835260018082015460ff808216978601889052959004909416918301919091526002810154606083015260038101546080830152600481015460a0830152600581015460c08301526006015460e08201529250036125a757610d418383612a77565b60608101516001600160a01b0384166000908152600a60205260409020600101546125d29190613407565b6001600160a01b0384166000908152600a60205260408120600101919091556125fe4262278d00613407565b905060006001836020015161261391906135bb565b9050604051806101000160405280846000015181526020018260ff168152602001846040015160ff16815260200184606001518152602001846080015181526020018381526020018460c0015181526020018460e00151815250600b6000876001600160a01b03166001600160a01b031681526020019081526020016000208560ff16815481106126a6576126a6613495565b6000918252602091829020835160079092020190815590820151600182018054604085015160ff9081166101000261ffff19909216931692909217919091179055606082015160028201556080820151600382015560a0820151600482015560c0820151600582015560e0909101516006909101555050505050565b6001600160a01b0382166000908152600b60205260408120805460ff841690811061274f5761274f613495565b906000526020600020906007020160060154905092915050565b600080612777868686612bd0565b9050600183600281111561278d5761278d6135d4565b1480156127aa5750600084806127a5576127a5613446565b868809115b15612241576127ba600182613407565b9695505050505050565b6127f07f0000000000000000000000000000000000000000000000000000000000000000853085612cc2565b6127fa8382612cfa565b826001600160a01b0316846001600160a01b03167fdcbc1c05240f31ff3ad067ef1ee35ce4997762752e3a095284754544f4c709d78484604051612848929190918252602082015260400190565b60405180910390a350505050565b6040516001600160a01b038316602482015260448101829052610d419084907fa9059cbb00000000000000000000000000000000000000000000000000000000906064015b60408051601f198184030181529190526020810180517bffffffffffffffffffffffffffffffffffffffffffffffffffffffff167fffffffff0000000000000000000000000000000000000000000000000000000090931692909217909152612db9565b6001600160a01b0382166000908152600a6020526040902080549082905581811190811561296f5760006129338483613433565b6001600160a01b0386166000908152600a6020526040812060010180549293508392909190612963908490613433565b90915550611dd0915050565b600061297b8285613433565b6001600160a01b0386166000908152600a60205260408120600101805492935083929091906129ab908490613407565b90915550505050505050565b826001600160a01b0316856001600160a01b0316146129db576129db838683611d44565b6129e58382612ea1565b612a107f00000000000000000000000000000000000000000000000000000000000000008584612856565b826001600160a01b0316846001600160a01b0316866001600160a01b03167ffbde797d201c681b91056529119e0b02407c7bb96a4a2c75c01fc9667232c8db8585604051612a68929190918252602082015260400190565b60405180910390a45050505050565b6001600160a01b0382166000908152600b6020526040902080548190612a9f90600190613433565b81548110612aaf57612aaf613495565b9060005260206000209060070201818360ff1681548110612ad257612ad2613495565b60009182526020909120825460079092020190815560018083018054918301805460ff93841660ff19821681178355925461ffff1990911690921761010092839004909316909102919091179055600280830154908201556003808301549082015560048083015490820155600580830154908201556006918201549101558054819080612b6257612b626135ea565b6000828152602080822060076000199094019384020182815560018101805461ffff1916905560028101839055600381018390556004810183905560058101839055600601829055919092556001600160a01b0390941681526009909352505060409020805460ff19169055565b6000808060001985870985870292508281108382030391505080600003612c0a57838281612c0057612c00613446565b04925050506108de565b808411612c595760405162461bcd60e51b815260206004820152601560248201527f4d6174683a206d756c446976206f766572666c6f7700000000000000000000006044820152606401610a88565b60008486880960026001871981018816978890046003810283188082028403028082028403028082028403028082028403028082028403029081029092039091026000889003889004909101858311909403939093029303949094049190911702949350505050565b6040516001600160a01b0380851660248301528316604482015260648101829052611dd09085906323b872dd60e01b9060840161289b565b6001600160a01b038216612d505760405162461bcd60e51b815260206004820152601f60248201527f45524332303a206d696e7420746f20746865207a65726f2061646472657373006044820152606401610a88565b8060026000828254612d629190613407565b90915550506001600160a01b038216600081815260208181526040808320805486019055518481527fddf252ad1be2c89b69c2b068fc378daa952ba7f163c4a11628f55a4df523b3ef910160405180910390a35050565b6000612e0e826040518060400160405280602081526020017f5361666545524332303a206c6f772d6c6576656c2063616c6c206661696c6564815250856001600160a01b031661300a9092919063ffffffff16565b9050805160001480612e2f575080806020019051810190612e2f91906134ab565b610d415760405162461bcd60e51b815260206004820152602a60248201527f5361666545524332303a204552433230206f7065726174696f6e20646964206e60448201527f6f742073756363656564000000000000000000000000000000000000000000006064820152608401610a88565b6001600160a01b038216612f1d5760405162461bcd60e51b815260206004820152602160248201527f45524332303a206275726e2066726f6d20746865207a65726f2061646472657360448201527f73000000000000000000000000000000000000000000000000000000000000006064820152608401610a88565b6001600160a01b03821660009081526020819052604090205481811015612fac5760405162461bcd60e51b815260206004820152602260248201527f45524332303a206275726e20616d6f756e7420657863656564732062616c616e60448201527f63650000000000000000000000000000000000000000000000000000000000006064820152608401610a88565b6001600160a01b0383166000818152602081815260408083208686039055600280548790039055518581529192917fddf252ad1be2c89b69c2b068fc378daa952ba7f163c4a11628f55a4df523b3ef910160405180910390a3505050565b6060610ac2848460008585600080866001600160a01b031685876040516130319190613600565b60006040518083038185875af1925050503d806000811461306e576040519150601f19603f3d011682016040523d82523d6000602084013e613073565b606091505b50915091506130848783838761308f565b979650505050505050565b606083156130fe5782516000036130f7576001600160a01b0385163b6130f75760405162461bcd60e51b815260206004820152601d60248201527f416464726573733a2063616c6c20746f206e6f6e2d636f6e74726163740000006044820152606401610a88565b5081610ac2565b610ac283838151156131135781518083602001fd5b8060405162461bcd60e51b8152600401610a889190613151565b60005b83811015613148578181015183820152602001613130565b50506000910152565b602081526000825180602084015261317081604085016020870161312d565b601f01601f19169190910160400192915050565b60006020828403121561319657600080fd5b5035919050565b80356001600160a01b03811681146131b457600080fd5b919050565b600080604083850312156131cc57600080fd5b6131d58361319d565b946020939093013593505050565b6000806000606084860312156131f857600080fd5b6132018461319d565b925061320f6020850161319d565b9150604084013590509250925092565b60006020828403121561323157600080fd5b6108de8261319d565b803560ff811681146131b457600080fd5b6000806040838503121561325e57600080fd5b6132678361319d565b91506132756020840161323a565b90509250929050565b6000806040838503121561329157600080fd5b823591506132756020840161319d565b80151581146132af57600080fd5b50565b600080600080608085870312156132c857600080fd5b6132d18561319d565b9350602085013592506040850135915060608501356132ef816132a1565b939692955090935050565b60008060006060848603121561330f57600080fd5b8335925061331f6020850161319d565b915061332d6040850161319d565b90509250925092565b6000806040838503121561334957600080fd5b823591506132756020840161323a565b60006020828403121561336b57600080fd5b6108de8261323a565b6000806040838503121561338757600080fd5b6133908361319d565b91506132756020840161319d565b6000602082840312156133b057600080fd5b5051919050565b600181811c908216806133cb57607f821691505b6020821081036133eb57634e487b7160e01b600052602260045260246000fd5b50919050565b634e487b7160e01b600052601160045260246000fd5b8082018082111561089a5761089a6133f1565b60ff818116838216019081111561089a5761089a6133f1565b8181038181111561089a5761089a6133f1565b634e487b7160e01b600052601260045260246000fd5b60008261347957634e487b7160e01b600052601260045260246000fd5b500490565b808202811582820484141761089a5761089a6133f1565b634e487b7160e01b600052603260045260246000fd5b6000602082840312156134bd57600080fd5b81516108de816132a1565b600181815b808511156135035781600019048211156134e9576134e96133f1565b808516156134f657918102915b93841c93908002906134cd565b509250929050565b60008261351a5750600161089a565b816135275750600061089a565b816001811461353d576002811461354757613563565b600191505061089a565b60ff841115613558576135586133f1565b50506001821b61089a565b5060208310610133831016604e8410600b8410161715613586575081810a61089a565b61359083836134c8565b80600019048211156135a4576135a46133f1565b029392505050565b60006108de60ff84168361350b565b60ff828116828216039081111561089a5761089a6133f1565b634e487b7160e01b600052602160045260246000fd5b634e487b7160e01b600052603160045260246000fd5b6000825161361281846020870161312d565b919091019291505056fea26469706673582212206fa1175272df3289616bb049b5657793672f5f0c166900598c297a04e80e592964736f6c63430008130033",
    "linkReferences": {},
    "deployedLinkReferences": {}
}