{
  "_format": "hh-sol-artifact-1",
  "contractName": "Loan",
  "sourceName": "contracts/Loan.sol",
  "abi": [
    {
      "inputs": [
        {
          "internalType": "address",
          "name": "_owner",
          "type": "address"
        },
        {
          "internalType": "address",
          "name": "_LOAN_TOKEN_ADDRESS",
          "type": "address"
        }
      ],
      "stateMutability": "nonpayable",
      "type": "constructor"
    },
    {
      "inputs": [],
      "name": "LOAN_TOKEN_ADDRES",
      "outputs": [
        {
          "internalType": "address",
          "name": "",
          "type": "address"
        }
      ],
      "stateMutability": "view",
      "type": "function"
    },
    {
      "inputs": [
        {
          "internalType": "address",
          "name": "",
          "type": "address"
        }
      ],
      "name": "address_to_user",
      "outputs": [
        {
          "internalType": "uint256",
          "name": "credit_worthiness",
          "type": "uint256"
        },
        {
          "internalType": "uint256",
          "name": "credit_available",
          "type": "uint256"
        }
      ],
      "stateMutability": "view",
      "type": "function"
    },
    {
      "inputs": [],
      "name": "create_user",
      "outputs": [],
      "stateMutability": "nonpayable",
      "type": "function"
    },
    {
      "inputs": [
        {
          "internalType": "uint256",
          "name": "loanAmount",
          "type": "uint256"
        },
        {
          "internalType": "uint8",
          "name": "number_of_splits",
          "type": "uint8"
        }
      ],
      "name": "dispatchLoan",
      "outputs": [],
      "stateMutability": "nonpayable",
      "type": "function"
    },
    {
      "inputs": [
        {
          "internalType": "address",
          "name": "user",
          "type": "address"
        }
      ],
      "name": "get_credit_limit",
      "outputs": [
        {
          "internalType": "uint256",
          "name": "",
          "type": "uint256"
        }
      ],
      "stateMutability": "view",
      "type": "function"
    },
    {
      "inputs": [
        {
          "internalType": "address",
          "name": "user",
          "type": "address"
        }
      ],
      "name": "get_credit_worthiness",
      "outputs": [
        {
          "internalType": "uint256",
          "name": "",
          "type": "uint256"
        }
      ],
      "stateMutability": "view",
      "type": "function"
    },
    {
      "inputs": [
        {
          "internalType": "address",
          "name": "user",
          "type": "address"
        },
        {
          "internalType": "uint8",
          "name": "id",
          "type": "uint8"
        }
      ],
      "name": "get_loan_by_id",
      "outputs": [
        {
          "components": [
            {
              "internalType": "uint256",
              "name": "amount",
              "type": "uint256"
            },
            {
              "internalType": "uint8",
              "name": "remaining_tenures",
              "type": "uint8"
            },
            {
              "internalType": "uint8",
              "name": "total_tenures",
              "type": "uint8"
            },
            {
              "internalType": "uint256",
              "name": "tenure_size",
              "type": "uint256"
            },
            {
              "internalType": "uint256",
              "name": "loan_taken_time",
              "type": "uint256"
            },
            {
              "internalType": "uint256",
              "name": "next_tenure_due",
              "type": "uint256"
            },
            {
              "internalType": "uint256",
              "name": "last_day_of_repayment",
              "type": "uint256"
            }
          ],
          "internalType": "struct Loan.loanDetails",
          "name": "",
          "type": "tuple"
        }
      ],
      "stateMutability": "view",
      "type": "function"
    },
    {
      "inputs": [
        {
          "internalType": "address",
          "name": "repayer",
          "type": "address"
        },
        {
          "internalType": "uint8",
          "name": "loanId",
          "type": "uint8"
        }
      ],
      "name": "get_repayment_amount",
      "outputs": [
        {
          "internalType": "uint256",
          "name": "",
          "type": "uint256"
        }
      ],
      "stateMutability": "view",
      "type": "function"
    },
    {
      "inputs": [],
      "name": "owner",
      "outputs": [
        {
          "internalType": "address",
          "name": "",
          "type": "address"
        }
      ],
      "stateMutability": "view",
      "type": "function"
    },
    {
      "inputs": [
        {
          "internalType": "uint8",
          "name": "id",
          "type": "uint8"
        }
      ],
      "name": "repay_tenure",
      "outputs": [],
      "stateMutability": "nonpayable",
      "type": "function"
    },
    {
      "inputs": [
        {
          "internalType": "address",
          "name": "user",
          "type": "address"
        },
        {
          "internalType": "uint256",
          "name": "newCredit",
          "type": "uint256"
        }
      ],
      "name": "update_credit_worthiness",
      "outputs": [],
      "stateMutability": "nonpayable",
      "type": "function"
    },
    {
      "inputs": [
        {
          "internalType": "address",
          "name": "",
          "type": "address"
        },
        {
          "internalType": "uint256",
          "name": "",
          "type": "uint256"
        }
      ],
      "name": "user_to_loan_mapping",
      "outputs": [
        {
          "internalType": "uint256",
          "name": "amount",
          "type": "uint256"
        },
        {
          "internalType": "uint8",
          "name": "remaining_tenures",
          "type": "uint8"
        },
        {
          "internalType": "uint8",
          "name": "total_tenures",
          "type": "uint8"
        },
        {
          "internalType": "uint256",
          "name": "tenure_size",
          "type": "uint256"
        },
        {
          "internalType": "uint256",
          "name": "loan_taken_time",
          "type": "uint256"
        },
        {
          "internalType": "uint256",
          "name": "next_tenure_due",
          "type": "uint256"
        },
        {
          "internalType": "uint256",
          "name": "last_day_of_repayment",
          "type": "uint256"
        }
      ],
      "stateMutability": "view",
      "type": "function"
    }
  ],
  "bytecode": "0x60e060405234801561001057600080fd5b5060405161139d38038061139d83398101604081905261002f91610067565b6001600160a01b039182166080521660a081905260c05261009a565b80516001600160a01b038116811461006257600080fd5b919050565b6000806040838503121561007a57600080fd5b6100838361004b565b91506100916020840161004b565b90509250929050565b60805160a05160c0516112b16100ec600039600081816106550152818161076901528181610a0201528181610ae20152610bde0152600061026a01526000818161022b015261048c01526112b16000f3fe608060405234801561001057600080fd5b50600436106100d45760003560e01c80638da5cb5b11610081578063bf397d351161005b578063bf397d351461029f578063d3771a72146102a7578063df4f1bdc146102ba57600080fd5b80638da5cb5b1461022657806397580af714610265578063ba9b20731461028c57600080fd5b8063654f72c8116100b2578063654f72c814610176578063657e7f14146101e5578063844e27e7146101fa57600080fd5b806329ac759c146100d95780635dbac2651461012c57806364fcacba1461014d575b600080fd5b6100ec6100e73660046110b8565b6102f6565b6040805197885260ff968716602089015294909516938601939093526060850191909152608084015260a083015260c082015260e0015b60405180910390f35b61013f61013a3660046110f3565b610357565b604051908152602001610123565b61013f61015b366004611126565b6001600160a01b031660009081526020819052604090205490565b6101896101843660046110f3565b61039f565b6040516101239190600060e0820190508251825260ff602084015116602083015260ff6040840151166040830152606083015160608301526080830151608083015260a083015160a083015260c083015160c083015292915050565b6101f86101f33660046110b8565b610481565b005b61013f610208366004611126565b6001600160a01b031660009081526020819052604090206001015490565b61024d7f000000000000000000000000000000000000000000000000000000000000000081565b6040516001600160a01b039091168152602001610123565b61024d7f000000000000000000000000000000000000000000000000000000000000000081565b6101f861029a366004611148565b61054a565b6101f86107e6565b6101f86102b536600461116b565b61088d565b6102e16102c8366004611126565b6000602081905290815260409020805460019091015482565b60408051928352602083019190915201610123565b6001602052816000526040600020818154811061031257600080fd5b600091825260209091206006909102018054600182015460028301546003840154600485015460059095015493965060ff808416965061010090930490921693909287565b6001600160a01b0382166000908152600160205260408120805460ff841690811061038457610384611186565b90600052602060002090600602016002015490505b92915050565b6103e56040518060e0016040528060008152602001600060ff168152602001600060ff168152602001600081526020016000815260200160008152602001600081525090565b6001600160a01b0383166000908152600160205260409020805460ff841690811061041257610412611186565b60009182526020918290206040805160e081018252600690930290910180548352600181015460ff808216958501959095526101009004909316908201526002820154606082015260038201546080820152600482015460a082015260059091015460c0820152905092915050565b336001600160a01b037f000000000000000000000000000000000000000000000000000000000000000016146104fe5760405162461bcd60e51b815260206004820152601560248201527f4f6e6c79206f776e65722063616e20757064617465000000000000000000000060448201526064015b60405180910390fd5b6001600160a01b03821660009081526020819052604090208181556001015461052790826111b2565b6001600160a01b0390921660009081526020819052604090206001019190915550565b336000908152602081815260409182902082518084019093528054808452600190910154918301919091528391906105c45760405162461bcd60e51b815260206004820152601460248201527f596f7520617265206e6f7420656c696769626c6500000000000000000000000060448201526064016104f5565b818160200151101561063e5760405162461bcd60e51b815260206004820152602260248201527f436c656172206465627473206265666f72652074616b696e67206e6577206c6f60448201527f616e00000000000000000000000000000000000000000000000000000000000060648201526084016104f5565b6040516370a0823160e01b815230600482015284907f00000000000000000000000000000000000000000000000000000000000000006001600160a01b0316906370a0823190602401602060405180830381865afa1580156106a4573d6000803e3d6000fd5b505050506040513d601f19601f820116820180604052508101906106c891906111c5565b101561073c5760405162461bcd60e51b815260206004820152602c60248201527f596f7572206c6f616e2063616e7420626520736572766564206e6f772074727960448201527f20616761696e206c61746572000000000000000000000000000000000000000060648201526084016104f5565b610747338585610c15565b6040516323b872dd60e01b8152306004820152336024820152604481018590527f00000000000000000000000000000000000000000000000000000000000000006001600160a01b0316906323b872dd906064015b6020604051808303816000875af11580156107bb573d6000803e3d6000fd5b505050506040513d601f19601f820116820180604052508101906107df91906111de565b5050505050565b33600090815260208190526040902054158015610813575033600090815260208190526040902060010154155b61085f5760405162461bcd60e51b815260206004820152601360248201527f5573657220616c7265616479206578697374730000000000000000000000000060448201526064016104f5565b6040805180820182526000808252602080830182815233835290829052929020905181559051600190910155565b33600090815260016020526040812080548392919060ff84169081106108b5576108b5611186565b60009182526020918290206040805160e08101825260069093029091018054808452600182015460ff808216968601969096526101009004909416918301919091526002810154606083015260038101546080830152600481015460a08301526005015460c0820152915015801590610931575060c081015115155b80156109405750608081015115155b801561094f575060a081015115155b80156109615750602081015160ff1615155b80156109705750606081015115155b80156109825750604081015160ff1615155b6109ce5760405162461bcd60e51b815260206004820152601860248201527f54686973206973206e6f7420612076616c6964206c6f616e000000000000000060448201526064016104f5565b6040517fdd62ed3e0000000000000000000000000000000000000000000000000000000081523360048201523060248201527f00000000000000000000000000000000000000000000000000000000000000006001600160a01b03169063dd62ed3e90604401602060405180830381865afa158015610a51573d6000803e3d6000fd5b505050506040513d601f19601f82011682018060405250810190610a7591906111c5565b81606001511115610ac85760405162461bcd60e51b815260206004820152601c60248201527f596f752068617665206e6f2070726f70657220616c6c6f77616e63650000000060448201526064016104f5565b60608101516040516370a0823160e01b81523360048201527f00000000000000000000000000000000000000000000000000000000000000006001600160a01b0316906370a0823190602401602060405180830381865afa158015610b31573d6000803e3d6000fd5b505050506040513d601f19601f82011682018060405250810190610b5591906111c5565b1015610ba35760405162461bcd60e51b815260206004820152601c60248201527f596f7520646f6e74206861766520656e6f7567682062616c616e63650000000060448201526064016104f5565b610bad3384610d62565b6000610bb93385610357565b6040516323b872dd60e01b8152336004820152306024820152604481018290529091507f00000000000000000000000000000000000000000000000000000000000000006001600160a01b0316906323b872dd9060640161079c565b6001600160a01b038316600090815260208181526040808320815180830190925280548252600101549181019190915290610c51600585611200565b610c5b90856111b2565b9050808260200151610c6d9190611222565b60208301526000610c8160ff851683611200565b9050426000610c938262278d006111b2565b90506000610ca48462278d00611235565b610cae90846111b2565b6001600160a01b039099166000908152600160208181526040808420815160e081018352998a5260ff9b8c168a8401818152928b0190815260608b01998a5260808b0198895260a08b0197885260c08b019e8f528154808601835591865292909420985160069094029098019283559651908201805497518a166101000261ffff19909816919099161795909517909655915160028401555160038301555160048201559351600590940193909355505050565b6001600160a01b0382166000908152600160205260408120805460ff8416908110610d8f57610d8f611186565b60009182526020918290206040805160e08101825260069093029091018054835260018082015460ff80821696860187905261010090910416928401929092526002810154606084015260038101546080840152600481015460a08401526005015460c083015290925003610e0d57610e088383610f73565b505050565b60608101516001600160a01b038416600090815260208190526040902060010154610e3891906111b2565b6001600160a01b038416600090815260208190526040812060010191909155610e644262278d006111b2565b9050600060018360200151610e79919061124c565b90506040518060e00160405280846000015181526020018260ff168152602001846040015160ff16815260200184606001518152602001846080015181526020018381526020018460c0015181525060016000876001600160a01b03166001600160a01b031681526020019081526020016000208560ff1681548110610f0157610f01611186565b6000918252602091829020835160069092020190815590820151600182018054604085015160ff9081166101000261ffff19909216931692909217919091179055606082015160028201556080820151600382015560a0820151600482015560c0909101516005909101555050505050565b6001600160a01b0382166000908152600160208190526040909120805490918291610f9e9190611222565b81548110610fae57610fae611186565b9060005260206000209060060201818360ff1681548110610fd157610fd1611186565b60009182526020909120825460069092020190815560018083018054918301805460ff93841660ff19821681178355925461ffff1990911690921761010092839004909316909102919091179055600280830154908201556003808301549082015560048083015490820155600591820154910155805481908061105757611057611265565b60008281526020812060066000199093019283020181815560018101805461ffff19169055600281018290556003810182905560048101829055600501559055505050565b80356001600160a01b03811681146110b357600080fd5b919050565b600080604083850312156110cb57600080fd5b6110d48361109c565b946020939093013593505050565b803560ff811681146110b357600080fd5b6000806040838503121561110657600080fd5b61110f8361109c565b915061111d602084016110e2565b90509250929050565b60006020828403121561113857600080fd5b6111418261109c565b9392505050565b6000806040838503121561115b57600080fd5b8235915061111d602084016110e2565b60006020828403121561117d57600080fd5b611141826110e2565b634e487b7160e01b600052603260045260246000fd5b634e487b7160e01b600052601160045260246000fd5b808201808211156103995761039961119c565b6000602082840312156111d757600080fd5b5051919050565b6000602082840312156111f057600080fd5b8151801515811461114157600080fd5b60008261121d57634e487b7160e01b600052601260045260246000fd5b500490565b818103818111156103995761039961119c565b80820281158282048414176103995761039961119c565b60ff82811682821603908111156103995761039961119c565b634e487b7160e01b600052603160045260246000fdfea26469706673582212209c42c1d47e6cb270a898440ce01efea940a847957396e04869bd0c0dd620893464736f6c63430008130033",
  "linkReferences": {},
  "deployedLinkReferences": {}
}