{
  "_format": "hh-sol-artifact-1",
  "contractName": "USDC",
  "sourceName": "contracts/USDC.sol",
  "abi": [
    {
      "inputs": [],
      "stateMutability": "nonpayable",
      "type": "constructor"
    },
    {
      "inputs": [],
      "name": "InvalidShortString",
      "type": "error"
    },
    {
      "inputs": [
        {
          "internalType": "string",
          "name": "str",
          "type": "string"
        }
      ],
      "name": "StringTooLong",
      "type": "error"
    },
    {
      "anonymous": false,
      "inputs": [
        {
          "indexed": true,
          "internalType": "address",
          "name": "owner",
          "type": "address"
        },
        {
          "indexed": true,
          "internalType": "address",
          "name": "spender",
          "type": "address"
        },
        {
          "indexed": false,
          "internalType": "uint256",
          "name": "value",
          "type": "uint256"
        }
      ],
      "name": "Approval",
      "type": "event"
    },
    {
      "anonymous": false,
      "inputs": [],
      "name": "EIP712DomainChanged",
      "type": "event"
    },
    {
      "anonymous": false,
      "inputs": [
        {
          "indexed": true,
          "internalType": "address",
          "name": "from",
          "type": "address"
        },
        {
          "indexed": true,
          "internalType": "address",
          "name": "to",
          "type": "address"
        },
        {
          "indexed": false,
          "internalType": "uint256",
          "name": "value",
          "type": "uint256"
        }
      ],
      "name": "Transfer",
      "type": "event"
    },
    {
      "inputs": [],
      "name": "DOMAIN_SEPARATOR",
      "outputs": [
        {
          "internalType": "bytes32",
          "name": "",
          "type": "bytes32"
        }
      ],
      "stateMutability": "view",
      "type": "function"
    },
    {
      "inputs": [
        {
          "internalType": "address",
          "name": "owner",
          "type": "address"
        },
        {
          "internalType": "address",
          "name": "spender",
          "type": "address"
        }
      ],
      "name": "allowance",
      "outputs": [
        {
          "internalType": "uint256",
          "name": "",
          "type": "uint256"
        }
      ],
      "stateMutability": "view",
      "type": "function"
    },
    {
      "inputs": [
        {
          "internalType": "address",
          "name": "spender",
          "type": "address"
        },
        {
          "internalType": "uint256",
          "name": "amount",
          "type": "uint256"
        }
      ],
      "name": "approve",
      "outputs": [
        {
          "internalType": "bool",
          "name": "",
          "type": "bool"
        }
      ],
      "stateMutability": "nonpayable",
      "type": "function"
    },
    {
      "inputs": [
        {
          "internalType": "address",
          "name": "account",
          "type": "address"
        }
      ],
      "name": "balanceOf",
      "outputs": [
        {
          "internalType": "uint256",
          "name": "",
          "type": "uint256"
        }
      ],
      "stateMutability": "view",
      "type": "function"
    },
    {
      "inputs": [],
      "name": "decimals",
      "outputs": [
        {
          "internalType": "uint8",
          "name": "",
          "type": "uint8"
        }
      ],
      "stateMutability": "view",
      "type": "function"
    },
    {
      "inputs": [
        {
          "internalType": "address",
          "name": "spender",
          "type": "address"
        },
        {
          "internalType": "uint256",
          "name": "subtractedValue",
          "type": "uint256"
        }
      ],
      "name": "decreaseAllowance",
      "outputs": [
        {
          "internalType": "bool",
          "name": "",
          "type": "bool"
        }
      ],
      "stateMutability": "nonpayable",
      "type": "function"
    },
    {
      "inputs": [],
      "name": "eip712Domain",
      "outputs": [
        {
          "internalType": "bytes1",
          "name": "fields",
          "type": "bytes1"
        },
        {
          "internalType": "string",
          "name": "name",
          "type": "string"
        },
        {
          "internalType": "string",
          "name": "version",
          "type": "string"
        },
        {
          "internalType": "uint256",
          "name": "chainId",
          "type": "uint256"
        },
        {
          "internalType": "address",
          "name": "verifyingContract",
          "type": "address"
        },
        {
          "internalType": "bytes32",
          "name": "salt",
          "type": "bytes32"
        },
        {
          "internalType": "uint256[]",
          "name": "extensions",
          "type": "uint256[]"
        }
      ],
      "stateMutability": "view",
      "type": "function"
    },
    {
      "inputs": [
        {
          "internalType": "address",
          "name": "spender",
          "type": "address"
        },
        {
          "internalType": "uint256",
          "name": "addedValue",
          "type": "uint256"
        }
      ],
      "name": "increaseAllowance",
      "outputs": [
        {
          "internalType": "bool",
          "name": "",
          "type": "bool"
        }
      ],
      "stateMutability": "nonpayable",
      "type": "function"
    },
    {
      "inputs": [],
      "name": "name",
      "outputs": [
        {
          "internalType": "string",
          "name": "",
          "type": "string"
        }
      ],
      "stateMutability": "view",
      "type": "function"
    },
    {
      "inputs": [
        {
          "internalType": "address",
          "name": "owner",
          "type": "address"
        }
      ],
      "name": "nonces",
      "outputs": [
        {
          "internalType": "uint256",
          "name": "",
          "type": "uint256"
        }
      ],
      "stateMutability": "view",
      "type": "function"
    },
    {
      "inputs": [
        {
          "internalType": "address",
          "name": "owner",
          "type": "address"
        },
        {
          "internalType": "address",
          "name": "spender",
          "type": "address"
        },
        {
          "internalType": "uint256",
          "name": "value",
          "type": "uint256"
        },
        {
          "internalType": "uint256",
          "name": "deadline",
          "type": "uint256"
        },
        {
          "internalType": "uint8",
          "name": "v",
          "type": "uint8"
        },
        {
          "internalType": "bytes32",
          "name": "r",
          "type": "bytes32"
        },
        {
          "internalType": "bytes32",
          "name": "s",
          "type": "bytes32"
        }
      ],
      "name": "permit",
      "outputs": [],
      "stateMutability": "nonpayable",
      "type": "function"
    },
    {
      "inputs": [],
      "name": "symbol",
      "outputs": [
        {
          "internalType": "string",
          "name": "",
          "type": "string"
        }
      ],
      "stateMutability": "view",
      "type": "function"
    },
    {
      "inputs": [],
      "name": "totalSupply",
      "outputs": [
        {
          "internalType": "uint256",
          "name": "",
          "type": "uint256"
        }
      ],
      "stateMutability": "view",
      "type": "function"
    },
    {
      "inputs": [
        {
          "internalType": "address",
          "name": "to",
          "type": "address"
        },
        {
          "internalType": "uint256",
          "name": "amount",
          "type": "uint256"
        }
      ],
      "name": "transfer",
      "outputs": [
        {
          "internalType": "bool",
          "name": "",
          "type": "bool"
        }
      ],
      "stateMutability": "nonpayable",
      "type": "function"
    },
    {
      "inputs": [
        {
          "internalType": "address",
          "name": "from",
          "type": "address"
        },
        {
          "internalType": "address",
          "name": "to",
          "type": "address"
        },
        {
          "internalType": "uint256",
          "name": "amount",
          "type": "uint256"
        }
      ],
      "name": "transferFrom",
      "outputs": [
        {
          "internalType": "bool",
          "name": "",
          "type": "bool"
        }
      ],
      "stateMutability": "nonpayable",
      "type": "function"
    }
  ],
  "bytecode": "0x6101606040523480156200001257600080fd5b50604051806040016040528060048152602001635553444360e01b81525080604051806040016040528060018152602001603160f81b815250604051806040016040528060048152602001635553444360e01b815250604051806040016040528060048152602001635553444360e01b81525081600390816200009691906200037c565b506004620000a582826200037c565b50620000b79150839050600562000190565b61012052620000c881600662000190565b61014052815160208084019190912060e052815190820120610100524660a0526200015660e05161010051604080517f8b73c3c69bb8fe3d512ecc4cf759cc79239f7b179b0ffacaa9a75d522b39400f60208201529081019290925260608201524660808201523060a082015260009060c00160405160208183030381529060405280519060200120905090565b60805250503060c052506200018a33620001736012600a6200055b565b62000184906402540be40062000573565b620001c9565b62000618565b6000602083511015620001b057620001a88362000290565b9050620001c3565b81620001bd84826200037c565b5060ff90505b92915050565b6001600160a01b038216620002255760405162461bcd60e51b815260206004820152601f60248201527f45524332303a206d696e7420746f20746865207a65726f20616464726573730060448201526064015b60405180910390fd5b80600260008282546200023991906200058d565b90915550506001600160a01b038216600081815260208181526040808320805486019055518481527fddf252ad1be2c89b69c2b068fc378daa952ba7f163c4a11628f55a4df523b3ef910160405180910390a35050565b600080829050601f81511115620002be578260405163305a27a960e01b81526004016200021c9190620005a3565b8051620002cb82620005f3565b179392505050565b505050565b634e487b7160e01b600052604160045260246000fd5b600181811c908216806200030357607f821691505b6020821081036200032457634e487b7160e01b600052602260045260246000fd5b50919050565b601f821115620002d357600081815260208120601f850160051c81016020861015620003535750805b601f850160051c820191505b8181101562000374578281556001016200035f565b505050505050565b81516001600160401b03811115620003985762000398620002d8565b620003b081620003a98454620002ee565b846200032a565b602080601f831160018114620003e85760008415620003cf5750858301515b600019600386901b1c1916600185901b17855562000374565b600085815260208120601f198616915b828110156200041957888601518255948401946001909101908401620003f8565b5085821015620004385787850151600019600388901b60f8161c191681555b5050505050600190811b01905550565b634e487b7160e01b600052601160045260246000fd5b600181815b808511156200049f57816000190482111562000483576200048362000448565b808516156200049157918102915b93841c939080029062000463565b509250929050565b600082620004b857506001620001c3565b81620004c757506000620001c3565b8160018114620004e05760028114620004eb576200050b565b6001915050620001c3565b60ff841115620004ff57620004ff62000448565b50506001821b620001c3565b5060208310610133831016604e8410600b841016171562000530575081810a620001c3565b6200053c83836200045e565b806000190482111562000553576200055362000448565b029392505050565b60006200056c60ff841683620004a7565b9392505050565b8082028115828204841417620001c357620001c362000448565b80820180821115620001c357620001c362000448565b600060208083528351808285015260005b81811015620005d257858101830151858201604001528201620005b4565b506000604082860101526040601f19601f8301168501019250505092915050565b80516020808301519190811015620003245760001960209190910360031b1b16919050565b60805160a05160c05160e0516101005161012051610140516112556200067360003960006103d2015260006103a701526000610b1f01526000610af701526000610a5201526000610a7c01526000610aa601526112556000f3fe608060405234801561001057600080fd5b50600436106100f55760003560e01c806370a0823111610097578063a457c2d711610066578063a457c2d7146101e9578063a9059cbb146101fc578063d505accf1461020f578063dd62ed3e1461022457600080fd5b806370a082311461018a5780637ecebe00146101b357806384b0196e146101c657806395d89b41146101e157600080fd5b806323b872dd116100d357806323b872dd1461014d578063313ce567146101605780633644e5151461016f578063395093511461017757600080fd5b806306fdde03146100fa578063095ea7b31461011857806318160ddd1461013b575b600080fd5b61010261025d565b60405161010f9190610fa5565b60405180910390f35b61012b610126366004610fdb565b6102ef565b604051901515815260200161010f565b6002545b60405190815260200161010f565b61012b61015b366004611005565b610309565b6040516012815260200161010f565b61013f61032d565b61012b610185366004610fdb565b61033c565b61013f610198366004611041565b6001600160a01b031660009081526020819052604090205490565b61013f6101c1366004611041565b61037b565b6101ce610399565b60405161010f979695949392919061105c565b61010261043e565b61012b6101f7366004610fdb565b61044d565b61012b61020a366004610fdb565b6104fc565b61022261021d36600461110e565b61050a565b005b61013f610232366004611181565b6001600160a01b03918216600090815260016020908152604080832093909416825291909152205490565b60606003805461026c906111b4565b80601f0160208091040260200160405190810160405280929190818152602001828054610298906111b4565b80156102e55780601f106102ba576101008083540402835291602001916102e5565b820191906000526020600020905b8154815290600101906020018083116102c857829003601f168201915b5050505050905090565b6000336102fd81858561066e565b60019150505b92915050565b6000336103178582856107c6565b610322858585610858565b506001949350505050565b6000610337610a45565b905090565b3360008181526001602090815260408083206001600160a01b03871684529091528120549091906102fd90829086906103769087906111e8565b61066e565b6001600160a01b038116600090815260076020526040812054610303565b6000606080828080836103cd7f00000000000000000000000000000000000000000000000000000000000000006005610b70565b6103f87f00000000000000000000000000000000000000000000000000000000000000006006610b70565b604080516000808252602082019092527f0f000000000000000000000000000000000000000000000000000000000000009b939a50919850469750309650945092509050565b60606004805461026c906111b4565b3360008181526001602090815260408083206001600160a01b0387168452909152812054909190838110156104ef5760405162461bcd60e51b815260206004820152602560248201527f45524332303a2064656372656173656420616c6c6f77616e63652062656c6f7760448201527f207a65726f00000000000000000000000000000000000000000000000000000060648201526084015b60405180910390fd5b610322828686840361066e565b6000336102fd818585610858565b8342111561055a5760405162461bcd60e51b815260206004820152601d60248201527f45524332305065726d69743a206578706972656420646561646c696e6500000060448201526064016104e6565b60007f6e71edae12b1b97f4d1f60370fef10105fa2faae0126114a169c64845d6126c98888886105898c610c1b565b6040805160208101969096526001600160a01b0394851690860152929091166060840152608083015260a082015260c0810186905260e00160405160208183030381529060405280519060200120905060006105e482610c43565b905060006105f482878787610c8b565b9050896001600160a01b0316816001600160a01b0316146106575760405162461bcd60e51b815260206004820152601e60248201527f45524332305065726d69743a20696e76616c6964207369676e6174757265000060448201526064016104e6565b6106628a8a8a61066e565b50505050505050505050565b6001600160a01b0383166106e95760405162461bcd60e51b8152602060048201526024808201527f45524332303a20617070726f76652066726f6d20746865207a65726f2061646460448201527f726573730000000000000000000000000000000000000000000000000000000060648201526084016104e6565b6001600160a01b0382166107655760405162461bcd60e51b815260206004820152602260248201527f45524332303a20617070726f766520746f20746865207a65726f20616464726560448201527f737300000000000000000000000000000000000000000000000000000000000060648201526084016104e6565b6001600160a01b0383811660008181526001602090815260408083209487168084529482529182902085905590518481527f8c5be1e5ebec7d5bd14f71427d1e84f3dd0314c0f7b2291e5b200ac8c7c3b925910160405180910390a3505050565b6001600160a01b03838116600090815260016020908152604080832093861683529290522054600019811461085257818110156108455760405162461bcd60e51b815260206004820152601d60248201527f45524332303a20696e73756666696369656e7420616c6c6f77616e636500000060448201526064016104e6565b610852848484840361066e565b50505050565b6001600160a01b0383166108d45760405162461bcd60e51b815260206004820152602560248201527f45524332303a207472616e736665722066726f6d20746865207a65726f20616460448201527f647265737300000000000000000000000000000000000000000000000000000060648201526084016104e6565b6001600160a01b0382166109505760405162461bcd60e51b815260206004820152602360248201527f45524332303a207472616e7366657220746f20746865207a65726f206164647260448201527f657373000000000000000000000000000000000000000000000000000000000060648201526084016104e6565b6001600160a01b038316600090815260208190526040902054818110156109df5760405162461bcd60e51b815260206004820152602660248201527f45524332303a207472616e7366657220616d6f756e742065786365656473206260448201527f616c616e6365000000000000000000000000000000000000000000000000000060648201526084016104e6565b6001600160a01b03848116600081815260208181526040808320878703905593871680835291849020805487019055925185815290927fddf252ad1be2c89b69c2b068fc378daa952ba7f163c4a11628f55a4df523b3ef910160405180910390a3610852565b6000306001600160a01b037f000000000000000000000000000000000000000000000000000000000000000016148015610a9e57507f000000000000000000000000000000000000000000000000000000000000000046145b15610ac857507f000000000000000000000000000000000000000000000000000000000000000090565b610337604080517f8b73c3c69bb8fe3d512ecc4cf759cc79239f7b179b0ffacaa9a75d522b39400f60208201527f0000000000000000000000000000000000000000000000000000000000000000918101919091527f000000000000000000000000000000000000000000000000000000000000000060608201524660808201523060a082015260009060c00160405160208183030381529060405280519060200120905090565b606060ff8314610b8a57610b8383610cb3565b9050610303565b818054610b96906111b4565b80601f0160208091040260200160405190810160405280929190818152602001828054610bc2906111b4565b8015610c0f5780601f10610be457610100808354040283529160200191610c0f565b820191906000526020600020905b815481529060010190602001808311610bf257829003601f168201915b50505050509050610303565b6001600160a01b03811660009081526007602052604090208054600181018255905b50919050565b6000610303610c50610a45565b836040517f19010000000000000000000000000000000000000000000000000000000000008152600281019290925260228201526042902090565b6000806000610c9c87878787610cf2565b91509150610ca981610db6565b5095945050505050565b60606000610cc083610f1e565b604080516020808252818301909252919250600091906020820181803683375050509182525060208101929092525090565b6000807f7fffffffffffffffffffffffffffffff5d576e7357a4501ddfe92f46681b20a0831115610d295750600090506003610dad565b6040805160008082526020820180845289905260ff881692820192909252606081018690526080810185905260019060a0016020604051602081039080840390855afa158015610d7d573d6000803e3d6000fd5b5050604051601f1901519150506001600160a01b038116610da657600060019250925050610dad565b9150600090505b94509492505050565b6000816004811115610dca57610dca611209565b03610dd25750565b6001816004811115610de657610de6611209565b03610e335760405162461bcd60e51b815260206004820152601860248201527f45434453413a20696e76616c6964207369676e6174757265000000000000000060448201526064016104e6565b6002816004811115610e4757610e47611209565b03610e945760405162461bcd60e51b815260206004820152601f60248201527f45434453413a20696e76616c6964207369676e6174757265206c656e6774680060448201526064016104e6565b6003816004811115610ea857610ea8611209565b03610f1b5760405162461bcd60e51b815260206004820152602260248201527f45434453413a20696e76616c6964207369676e6174757265202773272076616c60448201527f756500000000000000000000000000000000000000000000000000000000000060648201526084016104e6565b50565b600060ff8216601f811115610303576040517fb3512b0c00000000000000000000000000000000000000000000000000000000815260040160405180910390fd5b6000815180845260005b81811015610f8557602081850181015186830182015201610f69565b506000602082860101526020601f19601f83011685010191505092915050565b602081526000610fb86020830184610f5f565b9392505050565b80356001600160a01b0381168114610fd657600080fd5b919050565b60008060408385031215610fee57600080fd5b610ff783610fbf565b946020939093013593505050565b60008060006060848603121561101a57600080fd5b61102384610fbf565b925061103160208501610fbf565b9150604084013590509250925092565b60006020828403121561105357600080fd5b610fb882610fbf565b7fff00000000000000000000000000000000000000000000000000000000000000881681526000602060e08184015261109860e084018a610f5f565b83810360408501526110aa818a610f5f565b606085018990526001600160a01b038816608086015260a0850187905284810360c0860152855180825283870192509083019060005b818110156110fc578351835292840192918401916001016110e0565b50909c9b505050505050505050505050565b600080600080600080600060e0888a03121561112957600080fd5b61113288610fbf565b965061114060208901610fbf565b95506040880135945060608801359350608088013560ff8116811461116457600080fd5b9699959850939692959460a0840135945060c09093013592915050565b6000806040838503121561119457600080fd5b61119d83610fbf565b91506111ab60208401610fbf565b90509250929050565b600181811c908216806111c857607f821691505b602082108103610c3d57634e487b7160e01b600052602260045260246000fd5b8082018082111561030357634e487b7160e01b600052601160045260246000fd5b634e487b7160e01b600052602160045260246000fdfea2646970667358221220474cc2212c76131192a3938941546651082f1a929af8b5d1ae33803d2732050264736f6c63430008130033",
  "linkReferences": {},
  "deployedLinkReferences": {}
}