{
  "_format": "hh-sol-artifact-1",
  "contractName": "Account",
  "sourceName": "contracts/Account.sol",
  "abi": [
    {
      "inputs": [
        {
          "internalType": "address",
          "name": "_owner",
          "type": "address"
        },
        {
          "internalType": "address",
          "name": "_usdc_address",
          "type": "address"
        },
        {
          "internalType": "address",
          "name": "_dispatcher_address",
          "type": "address"
        }
      ],
      "stateMutability": "nonpayable",
      "type": "constructor"
    },
    {
      "inputs": [],
      "name": "DISPATCHER_ADDRESS",
      "outputs": [
        {
          "internalType": "address",
          "name": "",
          "type": "address"
        }
      ],
      "stateMutability": "view",
      "type": "function"
    },
    {
      "inputs": [],
      "name": "USDC_ADDRESS",
      "outputs": [
        {
          "internalType": "address",
          "name": "",
          "type": "address"
        }
      ],
      "stateMutability": "view",
      "type": "function"
    },
    {
      "inputs": [
        {
          "internalType": "address",
          "name": "spender",
          "type": "address"
        },
        {
          "internalType": "uint256",
          "name": "amount",
          "type": "uint256"
        }
      ],
      "name": "approveUSDC",
      "outputs": [],
      "stateMutability": "nonpayable",
      "type": "function"
    },
    {
      "inputs": [],
      "name": "count",
      "outputs": [
        {
          "internalType": "uint256",
          "name": "",
          "type": "uint256"
        }
      ],
      "stateMutability": "view",
      "type": "function"
    },
    {
      "inputs": [],
      "name": "owner",
      "outputs": [
        {
          "internalType": "address",
          "name": "",
          "type": "address"
        }
      ],
      "stateMutability": "view",
      "type": "function"
    },
    {
      "inputs": [
        {
          "internalType": "uint256",
          "name": "amount",
          "type": "uint256"
        },
        {
          "internalType": "address",
          "name": "reciever",
          "type": "address"
        },
        {
          "internalType": "address",
          "name": "sender",
          "type": "address"
        }
      ],
      "name": "transferUSDC",
      "outputs": [],
      "stateMutability": "nonpayable",
      "type": "function"
    },
    {
      "inputs": [
        {
          "components": [
            {
              "internalType": "address",
              "name": "sender",
              "type": "address"
            },
            {
              "internalType": "uint256",
              "name": "nonce",
              "type": "uint256"
            },
            {
              "internalType": "bytes",
              "name": "initCode",
              "type": "bytes"
            },
            {
              "internalType": "bytes",
              "name": "callData",
              "type": "bytes"
            },
            {
              "internalType": "uint256",
              "name": "callGasLimit",
              "type": "uint256"
            },
            {
              "internalType": "uint256",
              "name": "verificationGasLimit",
              "type": "uint256"
            },
            {
              "internalType": "uint256",
              "name": "preVerificationGas",
              "type": "uint256"
            },
            {
              "internalType": "uint256",
              "name": "maxFeePerGas",
              "type": "uint256"
            },
            {
              "internalType": "uint256",
              "name": "maxPriorityFeePerGas",
              "type": "uint256"
            },
            {
              "internalType": "bytes",
              "name": "paymasterAndData",
              "type": "bytes"
            },
            {
              "internalType": "bytes",
              "name": "signature",
              "type": "bytes"
            }
          ],
          "internalType": "struct UserOperation",
          "name": "userOp",
          "type": "tuple"
        },
        {
          "internalType": "bytes32",
          "name": "userOpHash",
          "type": "bytes32"
        },
        {
          "internalType": "uint256",
          "name": "",
          "type": "uint256"
        }
      ],
      "name": "validateUserOp",
      "outputs": [
        {
          "internalType": "uint256",
          "name": "validationData",
          "type": "uint256"
        }
      ],
      "stateMutability": "view",
      "type": "function"
    }
  ],
  "bytecode": "0x60c060405234801561001057600080fd5b506040516109d33803806109d383398101604081905261002f91610076565b600180546001600160a01b0319166001600160a01b039485161790559082166080521660a0526100b9565b80516001600160a01b038116811461007157600080fd5b919050565b60008060006060848603121561008b57600080fd5b6100948461005a565b92506100a26020850161005a565b91506100b06040850161005a565b90509250925092565b60805160a0516108da6100f960003960008181610130015281816102ea015261041b01526000818160f60152818161023c015261031201526108da6000f3fe608060405234801561001057600080fd5b506004361061007d5760003560e01c80638da5cb5b1161005b5780638da5cb5b146100c6578063bb09d9b7146100f1578063dc4ebf2614610118578063ded8bdcf1461012b57600080fd5b806306661abd146100825780633a871cdd1461009e5780633e725a11146100b1575b600080fd5b61008b60005481565b6040519081526020015b60405180910390f35b61008b6100ac366004610716565b610152565b6100c46100bf366004610786565b6101fd565b005b6001546100d9906001600160a01b031681565b6040516001600160a01b039091168152602001610095565b6100d97f000000000000000000000000000000000000000000000000000000000000000081565b6100c46101263660046107b0565b6102b2565b6100d97f000000000000000000000000000000000000000000000000000000000000000081565b7f19457468657265756d205369676e6564204d6573736167653a0a3332000000006000908152601c839052603c812081906101cf906101956101408801886107ec565b8080601f01602080910402602001604051908101604052809392919081815260200183838082843760009201919091525061048192505050565b6001549091506001600160a01b038083169116146101ee5760016101f1565b60005b60ff1695945050505050565b6040517f095ea7b30000000000000000000000000000000000000000000000000000000081526001600160a01b038381166004830152602482018390527f0000000000000000000000000000000000000000000000000000000000000000919082169063095ea7b3906044016020604051808303816000875af1158015610288573d6000803e3d6000fd5b505050506040513d601f19601f820116820180604052508101906102ac9190610833565b50505050565b6040517fdd62ed3e0000000000000000000000000000000000000000000000000000000081526001600160a01b0382811660048301527f0000000000000000000000000000000000000000000000000000000000000000811660248301527f0000000000000000000000000000000000000000000000000000000000000000919082169063dd62ed3e90604401602060405180830381865afa15801561035c573d6000803e3d6000fd5b505050506040513d601f19601f82011682018060405250810190610380919061085c565b8411156103d45760405162461bcd60e51b815260206004820152601160248201527f496e76616c696420616c6c6f77616e636500000000000000000000000000000060448201526064015b60405180910390fd5b6040517f0779afe60000000000000000000000000000000000000000000000000000000081526001600160a01b0383811660048301528481166024830152604482018690527f00000000000000000000000000000000000000000000000000000000000000009190821690630779afe690606401600060405180830381600087803b15801561046257600080fd5b505af1158015610476573d6000803e3d6000fd5b505050505050505050565b600080600061049085856104a5565b9150915061049d816104ea565b509392505050565b60008082516041036104db5760208301516040840151606085015160001a6104cf87828585610652565b945094505050506104e3565b506000905060025b9250929050565b60008160048111156104fe576104fe610875565b036105065750565b600181600481111561051a5761051a610875565b036105675760405162461bcd60e51b815260206004820152601860248201527f45434453413a20696e76616c6964207369676e6174757265000000000000000060448201526064016103cb565b600281600481111561057b5761057b610875565b036105c85760405162461bcd60e51b815260206004820152601f60248201527f45434453413a20696e76616c6964207369676e6174757265206c656e6774680060448201526064016103cb565b60038160048111156105dc576105dc610875565b0361064f5760405162461bcd60e51b815260206004820152602260248201527f45434453413a20696e76616c6964207369676e6174757265202773272076616c60448201527f756500000000000000000000000000000000000000000000000000000000000060648201526084016103cb565b50565b6000807f7fffffffffffffffffffffffffffffff5d576e7357a4501ddfe92f46681b20a0831115610689575060009050600361070d565b6040805160008082526020820180845289905260ff881692820192909252606081018690526080810185905260019060a0016020604051602081039080840390855afa1580156106dd573d6000803e3d6000fd5b5050604051601f1901519150506001600160a01b0381166107065760006001925092505061070d565b9150600090505b94509492505050565b60008060006060848603121561072b57600080fd5b833567ffffffffffffffff81111561074257600080fd5b8401610160818703121561075557600080fd5b95602085013595506040909401359392505050565b80356001600160a01b038116811461078157600080fd5b919050565b6000806040838503121561079957600080fd5b6107a28361076a565b946020939093013593505050565b6000806000606084860312156107c557600080fd5b833592506107d56020850161076a565b91506107e36040850161076a565b90509250925092565b6000808335601e1984360301811261080357600080fd5b83018035915067ffffffffffffffff82111561081e57600080fd5b6020019150368190038213156104e357600080fd5b60006020828403121561084557600080fd5b8151801515811461085557600080fd5b9392505050565b60006020828403121561086e57600080fd5b5051919050565b7f4e487b7100000000000000000000000000000000000000000000000000000000600052602160045260246000fdfea2646970667358221220046539b68d6792c7332205607853ccaecc48d6dec590b1c9eb2be362f7cf472664736f6c63430008130033",
  "linkReferences": {},
  "deployedLinkReferences": {}
}