{
  "_format": "hh-sol-artifact-1",
  "contractName": "Dispatcher",
  "sourceName": "contracts/Dispatcher.sol",
  "abi": [
    {
      "inputs": [
        {
          "internalType": "address",
          "name": "_USDC_ADDRESS",
          "type": "address"
        }
      ],
      "stateMutability": "nonpayable",
      "type": "constructor"
    },
    {
      "inputs": [],
      "name": "USDC_ADDRESS",
      "outputs": [
        {
          "internalType": "address",
          "name": "",
          "type": "address"
        }
      ],
      "stateMutability": "view",
      "type": "function"
    },
    {
      "inputs": [
        {
          "internalType": "address",
          "name": "from",
          "type": "address"
        },
        {
          "internalType": "address",
          "name": "to",
          "type": "address"
        },
        {
          "internalType": "uint256",
          "name": "amount",
          "type": "uint256"
        }
      ],
      "name": "send",
      "outputs": [],
      "stateMutability": "nonpayable",
      "type": "function"
    }
  ],
  "bytecode": "0x60a060405234801561001057600080fd5b506040516102bb3803806102bb83398101604081905261002f91610040565b6001600160a01b0316608052610070565b60006020828403121561005257600080fd5b81516001600160a01b038116811461006957600080fd5b9392505050565b60805161022b610090600039600081816055015260f4015261022b6000f3fe608060405234801561001057600080fd5b50600436106100365760003560e01c80630779afe61461003b578063bb09d9b714610050575b600080fd5b61004e610049366004610190565b6100a0565b005b6100777f000000000000000000000000000000000000000000000000000000000000000081565b60405173ffffffffffffffffffffffffffffffffffffffff909116815260200160405180910390f35b6040517f23b872dd00000000000000000000000000000000000000000000000000000000815273ffffffffffffffffffffffffffffffffffffffff84811660048301528381166024830152604482018390527f000000000000000000000000000000000000000000000000000000000000000016906323b872dd906064016020604051808303816000875af115801561013d573d6000803e3d6000fd5b505050506040513d601f19601f8201168201806040525081019061016191906101cc565b50505050565b803573ffffffffffffffffffffffffffffffffffffffff8116811461018b57600080fd5b919050565b6000806000606084860312156101a557600080fd5b6101ae84610167565b92506101bc60208501610167565b9150604084013590509250925092565b6000602082840312156101de57600080fd5b815180151581146101ee57600080fd5b939250505056fea2646970667358221220d7b06aca0dc6d399a066f3a0d0c09ca6e669292c20f9d5de7df8d7139a73598264736f6c63430008130033",
  "linkReferences": {},
  "deployedLinkReferences": {}
}