{
  "_format": "hh-sol-artifact-1",
  "contractName": "Vault",
  "sourceName": "contracts/Vault.sol",
  "abi": [
    {
      "inputs": [
        {
          "internalType": "contract IERC20",
          "name": "_asset",
          "type": "address"
        },
        {
          "internalType": "uint256",
          "name": "_basisPoints",
          "type": "uint256"
        },
        {
          "internalType": "address",
          "name": "_LOAN_CONTRACT_ADDRESS",
          "type": "address"
        }
      ],
      "stateMutability": "nonpayable",
      "type": "constructor"
    },
    {
      "anonymous": false,
      "inputs": [
        {
          "indexed": true,
          "internalType": "address",
          "name": "owner",
          "type": "address"
        },
        {
          "indexed": true,
          "internalType": "address",
          "name": "spender",
          "type": "address"
        },
        {
          "indexed": false,
          "internalType": "uint256",
          "name": "value",
          "type": "uint256"
        }
      ],
      "name": "Approval",
      "type": "event"
    },
    {
      "anonymous": false,
      "inputs": [
        {
          "indexed": true,
          "internalType": "address",
          "name": "sender",
          "type": "address"
        },
        {
          "indexed": true,
          "internalType": "address",
          "name": "owner",
          "type": "address"
        },
        {
          "indexed": false,
          "internalType": "uint256",
          "name": "assets",
          "type": "uint256"
        },
        {
          "indexed": false,
          "internalType": "uint256",
          "name": "shares",
          "type": "uint256"
        }
      ],
      "name": "Deposit",
      "type": "event"
    },
    {
      "anonymous": false,
      "inputs": [
        {
          "indexed": true,
          "internalType": "address",
          "name": "from",
          "type": "address"
        },
        {
          "indexed": true,
          "internalType": "address",
          "name": "to",
          "type": "address"
        },
        {
          "indexed": false,
          "internalType": "uint256",
          "name": "value",
          "type": "uint256"
        }
      ],
      "name": "Transfer",
      "type": "event"
    },
    {
      "anonymous": false,
      "inputs": [
        {
          "indexed": true,
          "internalType": "address",
          "name": "sender",
          "type": "address"
        },
        {
          "indexed": true,
          "internalType": "address",
          "name": "receiver",
          "type": "address"
        },
        {
          "indexed": true,
          "internalType": "address",
          "name": "owner",
          "type": "address"
        },
        {
          "indexed": false,
          "internalType": "uint256",
          "name": "assets",
          "type": "uint256"
        },
        {
          "indexed": false,
          "internalType": "uint256",
          "name": "shares",
          "type": "uint256"
        }
      ],
      "name": "Withdraw",
      "type": "event"
    },
    {
      "inputs": [],
      "name": "LOAN_CONTRACT_ADDRESS",
      "outputs": [
        {
          "internalType": "address",
          "name": "",
          "type": "address"
        }
      ],
      "stateMutability": "view",
      "type": "function"
    },
    {
      "inputs": [
        {
          "internalType": "address",
          "name": "owner",
          "type": "address"
        },
        {
          "internalType": "address",
          "name": "spender",
          "type": "address"
        }
      ],
      "name": "allowance",
      "outputs": [
        {
          "internalType": "uint256",
          "name": "",
          "type": "uint256"
        }
      ],
      "stateMutability": "view",
      "type": "function"
    },
    {
      "inputs": [
        {
          "internalType": "address",
          "name": "spender",
          "type": "address"
        },
        {
          "internalType": "uint256",
          "name": "amount",
          "type": "uint256"
        }
      ],
      "name": "approve",
      "outputs": [
        {
          "internalType": "bool",
          "name": "",
          "type": "bool"
        }
      ],
      "stateMutability": "nonpayable",
      "type": "function"
    },
    {
      "inputs": [],
      "name": "asset",
      "outputs": [
        {
          "internalType": "address",
          "name": "",
          "type": "address"
        }
      ],
      "stateMutability": "view",
      "type": "function"
    },
    {
      "inputs": [
        {
          "internalType": "address",
          "name": "account",
          "type": "address"
        }
      ],
      "name": "balanceOf",
      "outputs": [
        {
          "internalType": "uint256",
          "name": "",
          "type": "uint256"
        }
      ],
      "stateMutability": "view",
      "type": "function"
    },
    {
      "inputs": [
        {
          "internalType": "address",
          "name": "depositer",
          "type": "address"
        }
      ],
      "name": "calculate_interest",
      "outputs": [
        {
          "internalType": "uint256",
          "name": "",
          "type": "uint256"
        }
      ],
      "stateMutability": "view",
      "type": "function"
    },
    {
      "inputs": [
        {
          "internalType": "uint256",
          "name": "shares",
          "type": "uint256"
        }
      ],
      "name": "convertToAssets",
      "outputs": [
        {
          "internalType": "uint256",
          "name": "",
          "type": "uint256"
        }
      ],
      "stateMutability": "view",
      "type": "function"
    },
    {
      "inputs": [
        {
          "internalType": "uint256",
          "name": "assets",
          "type": "uint256"
        }
      ],
      "name": "convertToShares",
      "outputs": [
        {
          "internalType": "uint256",
          "name": "",
          "type": "uint256"
        }
      ],
      "stateMutability": "view",
      "type": "function"
    },
    {
      "inputs": [],
      "name": "decimals",
      "outputs": [
        {
          "internalType": "uint8",
          "name": "",
          "type": "uint8"
        }
      ],
      "stateMutability": "view",
      "type": "function"
    },
    {
      "inputs": [
        {
          "internalType": "address",
          "name": "spender",
          "type": "address"
        },
        {
          "internalType": "uint256",
          "name": "subtractedValue",
          "type": "uint256"
        }
      ],
      "name": "decreaseAllowance",
      "outputs": [
        {
          "internalType": "bool",
          "name": "",
          "type": "bool"
        }
      ],
      "stateMutability": "nonpayable",
      "type": "function"
    },
    {
      "inputs": [
        {
          "internalType": "uint256",
          "name": "assets",
          "type": "uint256"
        },
        {
          "internalType": "address",
          "name": "receiver",
          "type": "address"
        }
      ],
      "name": "deposit",
      "outputs": [
        {
          "internalType": "uint256",
          "name": "",
          "type": "uint256"
        }
      ],
      "stateMutability": "nonpayable",
      "type": "function"
    },
    {
      "inputs": [],
      "name": "entryFeeBasisPoints",
      "outputs": [
        {
          "internalType": "uint256",
          "name": "",
          "type": "uint256"
        }
      ],
      "stateMutability": "view",
      "type": "function"
    },
    {
      "inputs": [
        {
          "internalType": "address",
          "name": "spender",
          "type": "address"
        },
        {
          "internalType": "uint256",
          "name": "addedValue",
          "type": "uint256"
        }
      ],
      "name": "increaseAllowance",
      "outputs": [
        {
          "internalType": "bool",
          "name": "",
          "type": "bool"
        }
      ],
      "stateMutability": "nonpayable",
      "type": "function"
    },
    {
      "inputs": [
        {
          "internalType": "address",
          "name": "",
          "type": "address"
        }
      ],
      "name": "maxDeposit",
      "outputs": [
        {
          "internalType": "uint256",
          "name": "",
          "type": "uint256"
        }
      ],
      "stateMutability": "view",
      "type": "function"
    },
    {
      "inputs": [
        {
          "internalType": "address",
          "name": "",
          "type": "address"
        }
      ],
      "name": "maxMint",
      "outputs": [
        {
          "internalType": "uint256",
          "name": "",
          "type": "uint256"
        }
      ],
      "stateMutability": "view",
      "type": "function"
    },
    {
      "inputs": [
        {
          "internalType": "address",
          "name": "owner",
          "type": "address"
        }
      ],
      "name": "maxRedeem",
      "outputs": [
        {
          "internalType": "uint256",
          "name": "",
          "type": "uint256"
        }
      ],
      "stateMutability": "view",
      "type": "function"
    },
    {
      "inputs": [
        {
          "internalType": "address",
          "name": "owner",
          "type": "address"
        }
      ],
      "name": "maxWithdraw",
      "outputs": [
        {
          "internalType": "uint256",
          "name": "",
          "type": "uint256"
        }
      ],
      "stateMutability": "view",
      "type": "function"
    },
    {
      "inputs": [
        {
          "internalType": "uint256",
          "name": "shares",
          "type": "uint256"
        },
        {
          "internalType": "address",
          "name": "receiver",
          "type": "address"
        }
      ],
      "name": "mint",
      "outputs": [
        {
          "internalType": "uint256",
          "name": "",
          "type": "uint256"
        }
      ],
      "stateMutability": "nonpayable",
      "type": "function"
    },
    {
      "inputs": [],
      "name": "name",
      "outputs": [
        {
          "internalType": "string",
          "name": "",
          "type": "string"
        }
      ],
      "stateMutability": "view",
      "type": "function"
    },
    {
      "inputs": [
        {
          "internalType": "uint256",
          "name": "assets",
          "type": "uint256"
        }
      ],
      "name": "previewDeposit",
      "outputs": [
        {
          "internalType": "uint256",
          "name": "",
          "type": "uint256"
        }
      ],
      "stateMutability": "view",
      "type": "function"
    },
    {
      "inputs": [
        {
          "internalType": "uint256",
          "name": "shares",
          "type": "uint256"
        }
      ],
      "name": "previewMint",
      "outputs": [
        {
          "internalType": "uint256",
          "name": "",
          "type": "uint256"
        }
      ],
      "stateMutability": "view",
      "type": "function"
    },
    {
      "inputs": [
        {
          "internalType": "uint256",
          "name": "shares",
          "type": "uint256"
        }
      ],
      "name": "previewRedeem",
      "outputs": [
        {
          "internalType": "uint256",
          "name": "",
          "type": "uint256"
        }
      ],
      "stateMutability": "view",
      "type": "function"
    },
    {
      "inputs": [
        {
          "internalType": "uint256",
          "name": "assets",
          "type": "uint256"
        }
      ],
      "name": "previewWithdraw",
      "outputs": [
        {
          "internalType": "uint256",
          "name": "",
          "type": "uint256"
        }
      ],
      "stateMutability": "view",
      "type": "function"
    },
    {
      "inputs": [
        {
          "internalType": "uint256",
          "name": "shares",
          "type": "uint256"
        },
        {
          "internalType": "address",
          "name": "receiver",
          "type": "address"
        },
        {
          "internalType": "address",
          "name": "owner",
          "type": "address"
        }
      ],
      "name": "redeem",
      "outputs": [
        {
          "internalType": "uint256",
          "name": "",
          "type": "uint256"
        }
      ],
      "stateMutability": "nonpayable",
      "type": "function"
    },
    {
      "inputs": [],
      "name": "symbol",
      "outputs": [
        {
          "internalType": "string",
          "name": "",
          "type": "string"
        }
      ],
      "stateMutability": "view",
      "type": "function"
    },
    {
      "inputs": [],
      "name": "totalAssets",
      "outputs": [
        {
          "internalType": "uint256",
          "name": "",
          "type": "uint256"
        }
      ],
      "stateMutability": "view",
      "type": "function"
    },
    {
      "inputs": [],
      "name": "totalSupply",
      "outputs": [
        {
          "internalType": "uint256",
          "name": "",
          "type": "uint256"
        }
      ],
      "stateMutability": "view",
      "type": "function"
    },
    {
      "inputs": [
        {
          "internalType": "address",
          "name": "to",
          "type": "address"
        },
        {
          "internalType": "uint256",
          "name": "amount",
          "type": "uint256"
        }
      ],
      "name": "transfer",
      "outputs": [
        {
          "internalType": "bool",
          "name": "",
          "type": "bool"
        }
      ],
      "stateMutability": "nonpayable",
      "type": "function"
    },
    {
      "inputs": [
        {
          "internalType": "address",
          "name": "from",
          "type": "address"
        },
        {
          "internalType": "address",
          "name": "to",
          "type": "address"
        },
        {
          "internalType": "uint256",
          "name": "amount",
          "type": "uint256"
        }
      ],
      "name": "transferFrom",
      "outputs": [
        {
          "internalType": "bool",
          "name": "",
          "type": "bool"
        }
      ],
      "stateMutability": "nonpayable",
      "type": "function"
    },
    {
      "inputs": [],
      "name": "vaultOwner",
      "outputs": [
        {
          "internalType": "address payable",
          "name": "",
          "type": "address"
        }
      ],
      "stateMutability": "view",
      "type": "function"
    },
    {
      "inputs": [
        {
          "internalType": "uint256",
          "name": "assets",
          "type": "uint256"
        },
        {
          "internalType": "address",
          "name": "receiver",
          "type": "address"
        },
        {
          "internalType": "address",
          "name": "owner",
          "type": "address"
        }
      ],
      "name": "withdraw",
      "outputs": [
        {
          "internalType": "uint256",
          "name": "",
          "type": "uint256"
        }
      ],
      "stateMutability": "nonpayable",
      "type": "function"
    }
  ],
  "bytecode": "0x60e06040523480156200001157600080fd5b50604051620022ba380380620022ba8339810160408190526200003491620001fe565b826040518060400160405280601081526020016f2b30bab63a102aa9a221902a37b5b2b760811b81525060405180604001604052806005815260200164765553444360d81b81525081600390816200008d9190620002eb565b5060046200009c8282620002eb565b505050600080620000b3836200010060201b60201c565b9150915081620000c5576012620000c7565b805b60ff1660a05250506001600160a01b03908116608052600580546001600160a01b031916331790556006929092551660c0525062000402565b60408051600481526024810182526020810180516001600160e01b031663313ce56760e01b17905290516000918291829182916001600160a01b038716916200014991620003b7565b600060405180830381855afa9150503d806000811462000186576040519150601f19603f3d011682016040523d82523d6000602084013e6200018b565b606091505b5091509150818015620001a057506020815110155b15620001d857600081806020019051810190620001be9190620003e8565b905060ff8111620001d6576001969095509350505050565b505b5060009485945092505050565b6001600160a01b0381168114620001fb57600080fd5b50565b6000806000606084860312156200021457600080fd5b83516200022181620001e5565b6020850151604086015191945092506200023b81620001e5565b809150509250925092565b634e487b7160e01b600052604160045260246000fd5b600181811c908216806200027157607f821691505b6020821081036200029257634e487b7160e01b600052602260045260246000fd5b50919050565b601f821115620002e657600081815260208120601f850160051c81016020861015620002c15750805b601f850160051c820191505b81811015620002e257828155600101620002cd565b5050505b505050565b81516001600160401b0381111562000307576200030762000246565b6200031f816200031884546200025c565b8462000298565b602080601f8311600181146200035757600084156200033e5750858301515b600019600386901b1c1916600185901b178555620002e2565b600085815260208120601f198616915b82811015620003885788860151825594840194600190910190840162000367565b5085821015620003a75787850151600019600388901b60f8161c191681555b5050505050600190811b01905550565b6000825160005b81811015620003da5760208186018101518583015201620003be565b506000920191825250919050565b600060208284031215620003fb57600080fd5b5051919050565b60805160a05160c051611e5762000463600039600081816104800152611159015260006106610152600081816102c5015281816104d3015281816110dc0152818161113801528181611214015281816112d801526114920152611e576000f3fe608060405234801561001057600080fd5b50600436106101e55760003560e01c806370a082311161010f578063ba0af7a9116100a2578063d905777e11610071578063d905777e1461041c578063dd62ed3e1461042f578063ef8b30f714610468578063f638827b1461047b57600080fd5b8063ba0af7a9146103ed578063c63d75b6146102fc578063c6e6f592146103f6578063ce96cb771461040957600080fd5b8063a9059cbb116100de578063a9059cbb146103a1578063b3d7f6b9146103b4578063b460af94146103c7578063ba087652146103da57600080fd5b806370a082311461034a57806394bf804d1461037357806395d89b4114610386578063a457c2d71461038e57600080fd5b806323b872dd11610187578063402d267d11610156578063402d267d146102fc5780634cdad506146103115780635bc0bded146103245780636e553f651461033757600080fd5b806323b872dd14610296578063313ce567146102a957806338d52e0f146102c357806339509351146102e957600080fd5b8063095ea7b3116101c3578063095ea7b31461022d5780630a28a4771461025057806318160ddd146102635780631f52692b1461026b57600080fd5b806301e1d114146101ea57806306fdde031461020557806307a2d13a1461021a575b600080fd5b6101f26104a2565b6040519081526020015b60405180910390f35b61020d61054b565b6040516101fc9190611a68565b6101f2610228366004611a9b565b6105dd565b61024061023b366004611ad0565b6105f0565b60405190151581526020016101fc565b6101f261025e366004611a9b565b610608565b6002546101f2565b60055461027e906001600160a01b031681565b6040516001600160a01b0390911681526020016101fc565b6102406102a4366004611afa565b610635565b6102b1610659565b60405160ff90911681526020016101fc565b7f000000000000000000000000000000000000000000000000000000000000000061027e565b6102406102f7366004611ad0565b610685565b6101f261030a366004611b36565b5060001990565b6101f261031f366004611a9b565b6106c4565b6101f2610332366004611b36565b6106ec565b6101f2610345366004611b51565b6107b0565b6101f2610358366004611b36565b6001600160a01b031660009081526020819052604090205490565b6101f2610381366004611b51565b610842565b61020d6108d4565b61024061039c366004611ad0565b6108e3565b6102406103af366004611ad0565b61098d565b6101f26103c2366004611a9b565b61099b565b6101f26103d5366004611b7d565b6109c0565b6101f26103e8366004611b7d565b610acb565b6101f260065481565b6101f2610404366004611a9b565b610bcd565b6101f2610417366004611b36565b610bda565b6101f261042a366004611b36565b610bfe565b6101f261043d366004611bb9565b6001600160a01b03918216600090815260016020908152604080832093909416825291909152205490565b6101f2610476366004611a9b565b610c1c565b61027e7f000000000000000000000000000000000000000000000000000000000000000081565b6040517f70a082310000000000000000000000000000000000000000000000000000000081523060048201526000907f00000000000000000000000000000000000000000000000000000000000000006001600160a01b0316906370a0823190602401602060405180830381865afa158015610522573d6000803e3d6000fd5b505050506040513d601f19601f820116820180604052508101906105469190611be3565b905090565b60606003805461055a90611bfc565b80601f016020809104026020016040519081016040528092919081815260200182805461058690611bfc565b80156105d35780601f106105a8576101008083540402835291602001916105d3565b820191906000526020600020905b8154815290600101906020018083116105b657829003601f168201915b5050505050905090565b60006105ea826000610c3b565b92915050565b6000336105fe818585610c75565b5060019392505050565b60008061061a8382610dcd565b610dcd565b905061062e6106298285611c4c565b610dde565b9392505050565b600033610643858285610deb565b61064e858585610e7d565b506001949350505050565b6000610546817f0000000000000000000000000000000000000000000000000000000000000000611c5f565b3360008181526001602090815260408083206001600160a01b03871684529091528120549091906105fe90829086906106bf908790611c4c565b610c75565b6000806106d0836105dd565b90506106e281600061106a565b61106a565b61062e9082611c78565b6001600160a01b038116600090815260076020526040812054819062278d00906107169042611c78565b6107209190611ca1565b9050600081116107775760405162461bcd60e51b815260206004820152601d60248201527f5769746864726177206f6e6c79206166746572206f6e65206d6f6e746800000060448201526064015b60405180910390fd5b6001600160a01b03831660009081526008602052604081205460649061079e908490611cc3565b6107a89190611ca1565b949350505050565b336000908152600760205260408120541561081f5760405162461bcd60e51b815260206004820152602960248201527f57697468647261772070726576696f7573207374616b65206265666f726520696044820152686e6372656173696e6760b81b606482015260840161076e565b600061082a84610c1c565b905061083833848684611086565b61062e843361110b565b33600090815260076020526040812054156108b15760405162461bcd60e51b815260206004820152602960248201527f57697468647261772070726576696f7573207374616b65206265666f726520696044820152686e6372656173696e6760b81b606482015260840161076e565b60006108bc8461099b565b90506108ca33848387611086565b61062e813361110b565b60606004805461055a90611bfc565b3360008181526001602090815260408083206001600160a01b0387168452909152812054909190838110156109805760405162461bcd60e51b815260206004820152602560248201527f45524332303a2064656372656173656420616c6c6f77616e63652062656c6f7760448201527f207a65726f000000000000000000000000000000000000000000000000000000606482015260840161076e565b61064e8286868403610c75565b6000336105fe818585610e7d565b6000806109a78361118d565b90506109b68161061560065490565b61062e9082611c4c565b60006109cb82610bda565b841115610a1a5760405162461bcd60e51b815260206004820152601f60248201527f455243343632363a207769746864726177206d6f7265207468616e206d617800604482015260640161076e565b3360009081526007602052604090205415801590610a4657503360009081526008602052604090205415155b610a925760405162461bcd60e51b815260206004820152601660248201527f496e76657374206265666f726520776974686472617700000000000000000000604482015260640161076e565b6000610a9d85610608565b90506000610aaa3361119a565b9050610ac2338686610abc858b611c4c565b866111d4565b50949350505050565b6000610ad682610bfe565b841115610b255760405162461bcd60e51b815260206004820152601d60248201527f455243343632363a2072656465656d206d6f7265207468616e206d6178000000604482015260640161076e565b3360009081526007602052604090205415801590610b5157503360009081526008602052604090205415155b610b9d5760405162461bcd60e51b815260206004820152601660248201527f496e76657374206265666f726520776974686472617700000000000000000000604482015260640161076e565b6000610ba8856106c4565b90506000610bb53361119a565b9050610ac2338686610bc78587611c4c565b8a6111d4565b60006105ea826000611241565b6001600160a01b0381166000908152602081905260408120546105ea906000610c3b565b6001600160a01b0381166000908152602081905260408120546105ea565b600080610c2c836106dd60065490565b905061062e6104048285611c78565b600061062e610c486104a2565b610c53906001611c4c565b610c5f6000600a611dbe565b600254610c6c9190611c4c565b85919085611271565b6001600160a01b038316610cf05760405162461bcd60e51b8152602060048201526024808201527f45524332303a20617070726f76652066726f6d20746865207a65726f2061646460448201527f7265737300000000000000000000000000000000000000000000000000000000606482015260840161076e565b6001600160a01b038216610d6c5760405162461bcd60e51b815260206004820152602260248201527f45524332303a20617070726f766520746f20746865207a65726f20616464726560448201527f7373000000000000000000000000000000000000000000000000000000000000606482015260840161076e565b6001600160a01b0383811660008181526001602090815260408083209487168084529482529182902085905590518481527f8c5be1e5ebec7d5bd14f71427d1e84f3dd0314c0f7b2291e5b200ac8c7c3b925910160405180910390a3505050565b600061062e83836127106001611271565b60006105ea826001611241565b6001600160a01b038381166000908152600160209081526040808320938616835292905220546000198114610e775781811015610e6a5760405162461bcd60e51b815260206004820152601d60248201527f45524332303a20696e73756666696369656e7420616c6c6f77616e6365000000604482015260640161076e565b610e778484848403610c75565b50505050565b6001600160a01b038316610ef95760405162461bcd60e51b815260206004820152602560248201527f45524332303a207472616e736665722066726f6d20746865207a65726f20616460448201527f6472657373000000000000000000000000000000000000000000000000000000606482015260840161076e565b6001600160a01b038216610f755760405162461bcd60e51b815260206004820152602360248201527f45524332303a207472616e7366657220746f20746865207a65726f206164647260448201527f6573730000000000000000000000000000000000000000000000000000000000606482015260840161076e565b6001600160a01b038316600090815260208190526040902054818110156110045760405162461bcd60e51b815260206004820152602660248201527f45524332303a207472616e7366657220616d6f756e742065786365656473206260448201527f616c616e63650000000000000000000000000000000000000000000000000000606482015260840161076e565b6001600160a01b03848116600081815260208181526040808320878703905593871680835291849020805487019055925185815290927fddf252ad1be2c89b69c2b068fc378daa952ba7f163c4a11628f55a4df523b3ef910160405180910390a3610e77565b600061062e8261107c61271082611c4c565b8591906001611271565b6000611095836106dd60065490565b905060006110ab6005546001600160a01b031690565b90506110b9868686866112d3565b6000821180156110d257506001600160a01b0381163014155b15611103576111037f00000000000000000000000000000000000000000000000000000000000000005b8284611365565b505050505050565b6001600160a01b0381166000908152600760209081526040808320429055600890915290208290556111897f00000000000000000000000000000000000000000000000000000000000000007f000000000000000000000000000000000000000000000000000000000000000030611184600287611ca1565b61140e565b5050565b60006105ea826001610c3b565b6000806111a6836106ec565b6001600160a01b03909316600090815260076020908152604080832083905560089091528120555090919050565b60006111e08382610dcd565b905060006111f1878787878761145f565b60008211801561120a57506001600160a01b0381163014155b15611238576112387f00000000000000000000000000000000000000000000000000000000000000006110fc565b50505050505050565b600061062e61125182600a611dbe565b60025461125e9190611c4c565b6112666104a2565b610c6c906001611c4c565b60008061127f86868661151f565b9050600183600281111561129557611295611dcd565b1480156112b25750600084806112ad576112ad611c8b565b868809115b156112c5576112c2600182611c4c565b90505b95945050505050565b505050565b6112ff7f000000000000000000000000000000000000000000000000000000000000000085308561140e565b6113098382611611565b826001600160a01b0316846001600160a01b03167fdcbc1c05240f31ff3ad067ef1ee35ce4997762752e3a095284754544f4c709d78484604051611357929190918252602082015260400190565b60405180910390a350505050565b6040516001600160a01b0383166024820152604481018290526112ce9084907fa9059cbb00000000000000000000000000000000000000000000000000000000906064015b60408051601f198184030181529190526020810180517bffffffffffffffffffffffffffffffffffffffffffffffffffffffff167fffffffff00000000000000000000000000000000000000000000000000000000909316929092179091526116d0565b6040516001600160a01b0380851660248301528316604482015260648101829052610e779085907f23b872dd00000000000000000000000000000000000000000000000000000000906084016113aa565b826001600160a01b0316856001600160a01b03161461148357611483838683610deb565b61148d83826117b8565b6114b87f00000000000000000000000000000000000000000000000000000000000000008584611365565b826001600160a01b0316846001600160a01b0316866001600160a01b03167ffbde797d201c681b91056529119e0b02407c7bb96a4a2c75c01fc9667232c8db8585604051611510929190918252602082015260400190565b60405180910390a45050505050565b60008080600019858709858702925082811083820303915050806000036115595783828161154f5761154f611c8b565b049250505061062e565b8084116115a85760405162461bcd60e51b815260206004820152601560248201527f4d6174683a206d756c446976206f766572666c6f770000000000000000000000604482015260640161076e565b60008486880960026001871981018816978890046003810283188082028403028082028403028082028403028082028403028082028403029081029092039091026000889003889004909101858311909403939093029303949094049190911702949350505050565b6001600160a01b0382166116675760405162461bcd60e51b815260206004820152601f60248201527f45524332303a206d696e7420746f20746865207a65726f206164647265737300604482015260640161076e565b80600260008282546116799190611c4c565b90915550506001600160a01b038216600081815260208181526040808320805486019055518481527fddf252ad1be2c89b69c2b068fc378daa952ba7f163c4a11628f55a4df523b3ef910160405180910390a35050565b6000611725826040518060400160405280602081526020017f5361666545524332303a206c6f772d6c6576656c2063616c6c206661696c6564815250856001600160a01b03166119219092919063ffffffff16565b90508051600014806117465750808060200190518101906117469190611de3565b6112ce5760405162461bcd60e51b815260206004820152602a60248201527f5361666545524332303a204552433230206f7065726174696f6e20646964206e60448201527f6f74207375636365656400000000000000000000000000000000000000000000606482015260840161076e565b6001600160a01b0382166118345760405162461bcd60e51b815260206004820152602160248201527f45524332303a206275726e2066726f6d20746865207a65726f2061646472657360448201527f7300000000000000000000000000000000000000000000000000000000000000606482015260840161076e565b6001600160a01b038216600090815260208190526040902054818110156118c35760405162461bcd60e51b815260206004820152602260248201527f45524332303a206275726e20616d6f756e7420657863656564732062616c616e60448201527f6365000000000000000000000000000000000000000000000000000000000000606482015260840161076e565b6001600160a01b0383166000818152602081815260408083208686039055600280548790039055518581529192917fddf252ad1be2c89b69c2b068fc378daa952ba7f163c4a11628f55a4df523b3ef910160405180910390a3505050565b60606107a8848460008585600080866001600160a01b031685876040516119489190611e05565b60006040518083038185875af1925050503d8060008114611985576040519150601f19603f3d011682016040523d82523d6000602084013e61198a565b606091505b509150915061199b878383876119a6565b979650505050505050565b60608315611a15578251600003611a0e576001600160a01b0385163b611a0e5760405162461bcd60e51b815260206004820152601d60248201527f416464726573733a2063616c6c20746f206e6f6e2d636f6e7472616374000000604482015260640161076e565b50816107a8565b6107a88383815115611a2a5781518083602001fd5b8060405162461bcd60e51b815260040161076e9190611a68565b60005b83811015611a5f578181015183820152602001611a47565b50506000910152565b6020815260008251806020840152611a87816040850160208701611a44565b601f01601f19169190910160400192915050565b600060208284031215611aad57600080fd5b5035919050565b80356001600160a01b0381168114611acb57600080fd5b919050565b60008060408385031215611ae357600080fd5b611aec83611ab4565b946020939093013593505050565b600080600060608486031215611b0f57600080fd5b611b1884611ab4565b9250611b2660208501611ab4565b9150604084013590509250925092565b600060208284031215611b4857600080fd5b61062e82611ab4565b60008060408385031215611b6457600080fd5b82359150611b7460208401611ab4565b90509250929050565b600080600060608486031215611b9257600080fd5b83359250611ba260208501611ab4565b9150611bb060408501611ab4565b90509250925092565b60008060408385031215611bcc57600080fd5b611bd583611ab4565b9150611b7460208401611ab4565b600060208284031215611bf557600080fd5b5051919050565b600181811c90821680611c1057607f821691505b602082108103611c3057634e487b7160e01b600052602260045260246000fd5b50919050565b634e487b7160e01b600052601160045260246000fd5b808201808211156105ea576105ea611c36565b60ff81811683821601908111156105ea576105ea611c36565b818103818111156105ea576105ea611c36565b634e487b7160e01b600052601260045260246000fd5b600082611cbe57634e487b7160e01b600052601260045260246000fd5b500490565b80820281158282048414176105ea576105ea611c36565b600181815b80851115611d15578160001904821115611cfb57611cfb611c36565b80851615611d0857918102915b93841c9390800290611cdf565b509250929050565b600082611d2c575060016105ea565b81611d39575060006105ea565b8160018114611d4f5760028114611d5957611d75565b60019150506105ea565b60ff841115611d6a57611d6a611c36565b50506001821b6105ea565b5060208310610133831016604e8410600b8410161715611d98575081810a6105ea565b611da28383611cda565b8060001904821115611db657611db6611c36565b029392505050565b600061062e60ff841683611d1d565b634e487b7160e01b600052602160045260246000fd5b600060208284031215611df557600080fd5b8151801515811461062e57600080fd5b60008251611e17818460208701611a44565b919091019291505056fea26469706673582212207edf387979f59bf7dfd7c23655e95b74f24c8a609d8d789858a91a7b89a1b67564736f6c63430008130033",
  "linkReferences": {},
  "deployedLinkReferences": {}
}